0264724930232302010010100537+37755-122220FM-15+0027KOAK V0203205N00155018295MN0160935N5+01175+00785102685ADDAA101000095GA1025+009145999GA2075+018295999GA3075+045725999GD11991+0091459GD23991+0182959GD33991+0457259GF107991999999999999999999MA1102685102355REMMET10712/31/09 16:53:01 METAR KOAK 010053Z 32003KT 10SM FEW030 BKN060 BKN150 12/08 A3032 RMK AO2 SLP268 T01170078
0188724930232302010010101537+37755-122220FM-15+0027KOAK V0209999C00005019815MN0160935N5+01285+00725102735ADDAA101000095GA1075+019815999GD13991+0198159GF107991999999999999999999MA1102745102425REMMET09312/31/09 17:53:01 METAR KOAK 010153Z 00000KT 10SM BKN065 13/07 A3034 RMK AO2 SLP273 T01280072
0284724930232302010010102537+37755-122220FM-15+0027KOAK V0209999C00005045725MN0160935N5+01225+00835102765ADDAA101000095GA1025+007625999GA2045+018295999GA3085+045725999GD11991+0076259GD22991+0182959GD34991+0457259GF108991999999999999999999MA1102785102455MD1190129+9999REMMET11312/31/09 18:53:01 METAR KOAK 010253Z 00000KT 10SM FEW025 SCT060 OVC150 12/08 A3035 RMK AO2 SLP276 T01220083 51012
0226724930232302010010103537+37755-122220FM-15+0027KOAK V0209999C00005016765MN0160935N5+01175+00785102835ADDAA101000095GA1025+011895999GA2075+016765999GD11991+0118959GD23991+0167659GF107991999999999999999999MA1102845102525REMMET10012/31/09 19:53:02 METAR KOAK 010353Z 00000KT 10SM FEW039 BKN055 12/08 A3037 RMK AO2 SLP283 T01170078
0264724930232302010010104537+37755-122220FM-15+0027KOAK V0209999C00005054865MN0160935N5+01115+00785102795ADDAA101000095GA1025+006105999GA2045+016765999GA3075+054865999GD11991+0061059GD22991+0167659GD33991+0548659GF107991999999999999999999MA1102815102485REMMET10712/31/09 20:53:01 METAR KOAK 010453Z 00000KT 10SM FEW020 SCT055 BKN180 11/08 A3036 RMK AO2 SLP279 T01110078
0284724930232302010010105537+37755-122220FM-15+0027KOAK V0209999C00005010675MN0160935N5+01115+00835102825ADDAA101000095GA1025+006105999GA2075+010675999GD11991+0061059GD23991+0106759GF107991999999999999999999KA1999M+01331KA2999N+01061MA1102845102525MD1190079+9999REMMET11812/31/09 21:53:02 METAR KOAK 010553Z 00000KT 10SM FEW020 BKN035 11/08 A3037 RMK AO2 SLP282 T01110083 10133 20106 51007
0264724930232302010010106537+37755-122220FM-15+0027KOAK V0201805N00215060965MN0160935N5+01005+00835102855ADDAA101000095GA1025+010675999GA2045+015245999GA3075+060965999GD11991+0106759GD22991+0152459GD33991+0609659GF107991999999999999999999MA1102885102555REMMET10712/31/09 22:53:02 METAR KOAK 010653Z 18004KT 10SM FEW035 SCT050 BKN200 10/08 A3038 RMK AO2 SLP285 T01000083
0236724930232302010010107537+37755-122220FM-15+0027KOAK V0201205N003152200059N0160935N5+01005+00725102785ADDAA101000095GA1025+010675999GA2045+015245999GD11991+0106759GD22991+0152459GF104991999999999999999999MA1102785102455REMMET11012/31/09 23:53:02 METAR KOAK 010753Z 12006KT 10SM FEW035 SCT050 10/07 A3035 RMK AO2 SLP278 T01000072 401440089
0948724930232302010010107596+37755-122220SOD  +0027KOAK V020999999999999999999999999999+99999+99999999999ADDAA124000095AT1AU08HZ  5AX1085245KA1240M+01445KA2240N+00895MG1102424102644OE11240053608002135OE22240044708002145OE33240013099999995REMSOD77124 HR PRECIPITATION (IN):0.00  WEATHER(CODE):8  24 HR MAX TEMP (F):58 24 HR MAX TEMP TIME (LST):1438 24 HR MIN TEMP (F):48 24 HR MIN TEMP TIME (LST):0748 AVERAGE STATION PRESSURE:30.245 MINIMUM SEA LEVEL PRESSURE:30.31 TIME OF OCCURRENCE:1623 PEAK WIND SPEED (MPH):12  PEAK WIND DIR (DEG):80  PEAK WIND TIME (LST):0213  FASTEST 2MIN SPEED (MPH):10 FASTEST 2MIN DIR (DEG):80  FASTEST 2MIN TIME (LST):0214 AVERAGE WIND SPEED (MPH):2.9  24 HR AVG TEMP (F):53 DEPART FROM NORMAL: +4  HEATING DEGREE DAYS:12  COOLING DEGREE DAYS:0   LATEST DAY MAX TEMP (0700-1900 LST):58  LATEST NIGHT MIN TEMP(1900-0800 LST):48 HOURLY INCREMENTAL PRECIPITATION VALUES (IN):.00 0.00 0.00 0.00 0.00 0.00 0.00 0.00 0.00 0.00 0.00 0.00 0.00 0.00 0.00 0.00 0.00 0.00 0.00 0.00 0.00 0.00 0.00 0.00EQDR01     N7GJS072R02     N7GKS075
1261724930232302010010107596+37755-122220SOM  +0027KOAK V020999999999999999999999999999+99999+99999999999ADDAB10025496AD10011791213999999995AE1045015005005AH1005001592622175AH2010002092622205AH3015002891212145AH4020003091212185AH5030003691212315AH6045004191212355AI1060005391212585AI2080006691213115AI3100006691213115AI4120006691213115AI5150006691213115AI6180008691215015KB1744N+05225KB2744M+12945KB3744A+09115KC1N9-00110899995KC2M9+01771899995KD1744H05085KD2744C00005KE1005005025005MH1101524101864MK1102883111015100371216285REMSOM813PCP MTOT:1.00 DEPNRM:-0.8 PCP GT 24HRS:0.46 DATE(S):12-13 DAYS W/PCP >=.01:4  DAYS W/PCP >=.10:1  DAYS W/ PCP >=.50:0 DAYS W/PCP >=1.00:0 MSDP AMTS W/DATE-TIME TAGS:MIN:5 0.06  26/2217 MIN:10 0.08  26/2220 MIN:15 0.11  12/1214 MIN:20 0.12  12/1218 MIN:30 0.14  12/1231 MIN:45 0.16  12/1235 MIN:60 0.21  12/1258 MIN:80 0.26  12/1311 MIN:100 0.26  12/1311 MIN:120 0.26  12/1311 MIN:150 0.26  12/1311 MIN:180 0.34  12/1501 AVG DLY MIN:41.4  AVG DLY MAX:55.3  AVG MLY TMP:48.4  DEP NORM:-1.3  MIN TMP:30 DATE(S):08 MAX TMP:64  DATE(S):18 DAYS MAX <=32:0 DAYS MAX >=90:0  DAYS MIN <=32:2  DAYS MIN  <=0:0  AVG STP:29.980 LWST SLP:29.64 DATE/TIME:121628 HGST SLP:30.38 DATE/TIME:311101 HDD MTH TOT:508 DEP NORM:+34 SEASON(JUL 1-JUN 30):1245 DEP NORM:+348 CDD MTH TOT:0 DEP NORM: 0 SEASON(JAN 1-DEC 31):174 DEP NORM:-356EQDR01  1.007ABP070
0251724930232302010010108537+37755-122220FM-15+0027KOAK V0201105N002652200059N0160935N5+01115+00725102685ADDAA101000095GA1025+010675999GA2045+015245999GD11991+0106759GD22991+0152459GF104991999999999999999999MA1102685102355MD1890149+9999REMMET11101/01/10 00:53:02 METAR KOAK 010853Z 11005KT 10SM FEW035 SCT050 11/07 A3032 RMK AO2 SLP268 T01110072 58014 (WS)
0231724930232302010010109537+37755-122220FM-15+0027KOAK V0201305N00155015245MN0160935N5+01115+00725102685ADDAA101000095GA1045+010675999GA2075+015245999GD12991+0106759GD23991+0152459GF107991999999999999999999MA1102715102385REMMET10501/01/10 01:53:02 METAR KOAK 010953Z 13003KT 10SM SCT035 BKN050 11/07 A3033 RMK AO2 SLP268 T01110072 (WS)
0231724930232302010010110537+37755-122220FM-15+0027KOAK V0209999C00005015245MN0160935N5+01065+00725102705ADDAA101000095GA1045+010675999GA2075+015245999GD12991+0106759GD23991+0152459GF107991999999999999999999MA1102715102385REMMET10501/01/10 02:53:02 METAR KOAK 011053Z 00000KT 10SM SCT035 BKN050 11/07 A3033 RMK AO2 SLP270 T01060072 (WS)
0289724930232302010010111537+37755-122220FM-15+0027KOAK V0209999C00005027435MN0160935N5+01065+00835102675ADDAA101000095GA1045+015245999GA2075+027435999GD12991+0152459GD23991+0274359GF107991999999999999999999KA1999M+01111KA2999N+00941MA1102685102355MD1890019+9999REMMET12301/01/10 03:53:02 METAR KOAK 011153Z 00000KT 10SM SCT050 BKN090 11/08 A3032 RMK AO2 SLP267 T01060083 10111 20094 58001 (WS)
0231724930232302010010112537+37755-122220FM-15+0027KOAK V0209999C00005030485MN0160935N5+00945+00785102725ADDAA101000095GA1045+015245999GA2075+030485999GD12991+0152459GD23991+0304859GF107991999999999999999999MA1102745102425REMMET10501/01/10 04:53:02 METAR KOAK 011253Z 00000KT 10SM SCT050 BKN100 09/08 A3034 RMK AO2 SLP272 T00940078 (WS)
0231724930232302010010113537+37755-122220FM-15+0027KOAK V0209999C00005030485MN0160935N5+01005+00785102705ADDAA101000095GA1045+015245999GA2075+030485999GD12991+0152459GD23991+0304859GF107991999999999999999999MA1102715102385REMMET10501/01/10 05:53:02 METAR KOAK 011353Z 00000KT 10SM SCT050 BKN100 10/08 A3033 RMK AO2 SLP270 T01000078 (WS)
0251724930232302010010114537+37755-122220FM-15+0027KOAK V0209999C00005033535MN0160935N5+01005+00785102715ADDAA101000095GA1025+015245999GA2075+033535999GD11991+0152459GD23991+0335359GF107991999999999999999999MA1102715102385MD1190049+9999REMMET11101/01/10 06:53:02 METAR KOAK 011453Z 00000KT 10SM FEW050 BKN110 10/08 A3033 RMK AO2 SLP271 T01000078 51004 (WS)
0269724930232302010010115537+37755-122220FM-15+0027KOAK V0201705N00315027435MN0160935N5+01005+00835102695ADDAA101000095GA1025+003055999GA2075+027435999GA3085+030485999GD11991+0030559GD23991+0274359GD34991+0304859GF108991999999999999999999MA1102715102385REMMET11201/01/10 07:53:02 METAR KOAK 011553Z 17006KT 10SM FEW010 BKN090 OVC100 10/08 A3033 RMK AO2 SLP269 T01000083 (LM)
0231724930232302010010116537+37755-122220FM-15+0027KOAK V0201205N00415024385MN0160935N5+01065+00785102705ADDAA101000095GA1025+003055999GA2085+024385999GD11991+0030559GD24991+0243859GF108991999999999999999999MA1102715102385REMMET10501/01/10 08:53:02 METAR KOAK 011653Z 12008KT 10SM FEW010 OVC080 11/08 A3033 RMK AO2 SLP270 T01060078 (LM)
0289724930232302010010117537+37755-122220FM-15+0027KOAK V0201805N00265024385MN0160935N5+01065+00835102745ADDAA101000095GA1025+003055999GA2085+024385999GD11991+0030559GD24991+0243859GF108991999999999999999999KA1999M+01111KA2999N+00941MA1102745102425MD1390039+9999REMMET12301/01/10 09:53:02 METAR KOAK 011753Z 18005KT 10SM FEW010 OVC080 11/08 A3034 RMK AO2 SLP274 T01060083 10111 20094 53003 (LM)
0284724930232302010010118537+37755-122220FM-15+0027KOAK V0201305N00215024385MN0160935N5+01225+00835102765ADDAA101000025GA1025+003055999GA2075+024385999GA3075+036585999GD11991+0030559GD23991+0243859GD33991+0365859GF107991999999999999999999MA1102785102455REMMET12701/01/10 10:53:02 METAR KOAK 011853Z 13004KT 10SM FEW010 BKN080 BKN120 12/08 A3035 RMK AO2 RAB04E14 SLP276 P0000 T01220083 (LM)
0269724930232302010010119537+37755-122220FM-15+0027KOAK V0209999C00005024385MN0160935N5+01335+00895102715ADDAA101000095GA1045+003055999GA2075+024385999GA3085+036585999GD12991+0030559GD23991+0243859GD34991+0365859GF108991999999999999999999MA1102715102385REMMET11201/01/10 11:53:02 METAR KOAK 011953Z 00000KT 10SM SCT010 BKN080 OVC120 13/09 A3033 RMK AO2 SLP271 T01330089 (LM)
0241724930232302010010120387+37755-122220FM-16+0027KOAK V0201205N00215008535MN0160935N5+01405+00905999999ADDGA1075+008535999GA2075+024385999GA3085+036585999GD13991+0085359GD23991+0243859GD34991+0365859GF108991999999999999999999MA1102645102315REMMET09501/01/10 12:38:02 SPECI KOAK 012038Z 12004KT 10SM BKN028 BKN080 OVC120 14/09 A3031 RMK AO2 (LM)
0306724930232302010010120537+37755-122220FM-15+0027KOAK V0201305N00155007925MN0160935N5+01565+00945102635ADDAA101000095AA203000021GA1075+007925999GA2075+009145999GA3085+015245999GD13991+0079259GD23991+0091459GD34991+0152459GF108991999999999999999999MA1102645102315MD1890119+9999REMMET12401/01/10 12:53:02 METAR KOAK 012053Z 13003KT 10SM BKN026 BKN030 OVC050 16/09 A3031 RMK AO2 SLP263 60000 T01560094 58011 (LM)
0241724930232302010010121247+37755-122220FM-16+0027KOAK V0201205N00315015245MN0160935N5+01605+00905999999ADDGA1025+007925999GA2045+009145999GA3075+015245999GD11991+0079259GD22991+0091459GD33991+0152459GF107991999999999999999999MA1102545102215REMMET09501/01/10 13:24:02 SPECI KOAK 012124Z 12006KT 10SM FEW026 SCT030 BKN050 16/09 A3028 RMK AO2 (LM)
0269724930232302010010121537+37755-122220FM-15+0027KOAK V0201705N00215015245MN0160935N5+01565+01005102525ADDAA101000095GA1025+007925999GA2045+012505999GA3075+015245999GD11991+0079259GD22991+0125059GD33991+0152459GF107991999999999999999999MA1102545102215REMMET11201/01/10 13:53:02 METAR KOAK 012153Z 17004KT 10SM FEW026 SCT041 BKN050 16/10 A3028 RMK AO2 SLP252 T01560100 (LM)
0182724930232302010010122516+37755-122220FM-16+0027KOAK V0201305N00155008845MN0160935N5+01605+01005999999ADDGA1075+008845999GA2085+011895999GD13991+0088459GD24991+0118959MA1102545102215REMMET09301/01/10 14:51:02 SPECI KOAK 012251Z 13003KT 10SM BKN029 OVC039 16/10 A3028 RMK AO2 FIBI (LM)
0231724930232302010010122537+37755-122220FM-15+0027KOAK V0209999C00005008845MN0160935N5+01565+01005102545ADDAA101000095GA1075+008845999GA2085+011895999GD13991+0088459GD24991+0118959GF108991999999999999999999MA1102545102215REMMET10501/01/10 14:53:02 METAR KOAK 012253Z 00000KT 10SM BKN029 OVC039 16/10 A3028 RMK AO2 SLP254 T01560100 (LM)
0241724930232302010010123037+37755-122220FM-16+0027KOAK V0209999C00005011895MN0160935N5+01605+01005999999ADDGA1025+007625999GA2075+011895999GA3075+060965999GD11991+0076259GD23991+0118959GD33991+0609659GF107991999999999999999999MA1102545102215REMMET09501/01/10 15:03:02 SPECI KOAK 012303Z 00000KT 10SM FEW025 BKN039 BKN200 16/10 A3028 RMK AO2 (LM)
0220724930232302010010123466+37755-122220FM-16+0027KOAK V0202605N00155008535MN0160935N5+01305+00905999999ADDGA1075+008535999GA2075+010675999GA3075+060965999GD13991+0085359GD23991+0106759GD33991+0609659MA1102575102255REMMET10001/01/10 15:46:02 SPECI KOAK 012346Z 26003KT 10SM BKN028 BKN035 BKN200 13/09 A3029 RMK AO2 VCSH (KC)
0349724930232302010010123537+37755-122220FM-15+0027KOAK V0202305N00155008535MN0160935N5+01335+01005102565ADDAA101000095AA206000021GA1075+008535999GA2075+010065999GA3075+060965999GD13991+0085359GD23991+0100659GD33991+0609659GF107991999999999999999999KA1999M+01611KA2999N+01061MA1102575102255MD1590079+9999REMMET14101/01/10 15:53:02 METAR KOAK 012353Z 23003KT 10SM BKN028 BKN033 BKN200 13/10 A3029 RMK AO2 SLP256 VCSH 60000 T01330100 10161 20106 55007 (KC)
0232724930232302010010200417+37755-122220FM-16+0027KOAK V0209999C00005010065MN0160935N5+01205+00905999999ADDGA1025+001525999GA2045+007925999GA3075+010065999GD11991+0015259GD22991+0079259GD33991+0100659GF107991999999999999999999MA1102545102215REMMET08601/01/10 16:41:02 SPECI KOAK 020041Z 00000KT 10SM FEW005 SCT026 BKN033 12/09 A3028 RMK
0264724930232302010010200537+37755-122220FM-15+0027KOAK V0209999C00005008535MN0160935N5+01285+00945102515ADDAA101000095GA1025+000915999GA2075+008535999GA3075+010675999GD11991+0009159GD23991+0085359GD33991+0106759GF107991999999999999999999MA1102515102185REMMET10701/01/10 16:53:02 METAR KOAK 020053Z 00000KT 10SM FEW003 BKN028 BKN035 13/09 A3027 RMK AO2 SLP251 T01280094
0264724930232302010010201537+37755-122220FM-15+0027KOAK V0209999C00005006405MN0160935N5+01335+01005102545ADDAA101000095GA1025+000915999GA2075+006405999GA3085+007925999GD11991+0009159GD23991+0064059GD34991+0079259GF108991999999999999999999MA1102545102215REMMET10701/01/10 17:53:02 METAR KOAK 020153Z 00000KT 10SM FEW003 BKN021 OVC026 13/10 A3028 RMK AO2 SLP254 T01330100
0312724930232302010010202537+37755-122220FM-15+0027KOAK V0202705N00155005795MN0112655N5+01285+01115102545ADDAA101000025AA203000021GA1025+000305999GA2085+005795999GD11991+0003059GD24991+0057959GF108991999999999999999999MA1102545102215MD1590019+9999REMMET12601/01/10 18:53:02 METAR KOAK 020253Z 27003KT 7SM FEW001 OVC019 13/11 A3028 RMK AO2 RAB37E50 SLP254 P0000 60000 T01280111 55001EQDQ01  00002PRCP03Q02  00008PRCP03
0251724930232302010010203537+37755-122220FM-15+0027KOAK V0203305N00155006715MN0080475N5+01335+01175102625ADDAA101000095AU100001015AW1105GA1025+000305999GA2085+006715999GD11991+0003059GD24991+0067159GF108991999999999999999999MA1102645102315MW1101REMMET10201/01/10 19:53:01 METAR KOAK 020353Z 33003KT 5SM BR FEW001 OVC022 13/12 A3031 RMK AO2 SLP262 T01330117
0263724930232302010010204537+37755-122220FM-15+0027KOAK V0200205N00155006105MN0112655N5+01335+01175102625ADDAA101000095GA1025+000305999GA2075+006105999GA3075+009145999GD11991+0003059GD23991+0061059GD33991+0091459GF107991999999999999999999MA1102615102285REMMET10601/01/10 20:53:01 METAR KOAK 020453Z 02003KT 7SM FEW001 BKN020 BKN030 13/12 A3030 RMK AO2 SLP262 T01330117
0235724930232302010010205057+37755-122220FM-16+0027KOAK V0200305N00155003665MN0112655N5+01305+01205999999ADDGA1025+000305999GA2075+003665999GA3075+005185999GD11991+0003059GD23991+0036659GD33991+0051859GF107991999999999999999999MA1102615102285REMMET08901/01/10 21:05:02 SPECI KOAK 020505Z 03003KT 7SM FEW001 BKN012 BKN017 13/12 A3030 RMK AO2
0197724930232302010010205477+37755-122220FM-16+0027KOAK V0209999C00005002745MN0112655N5+01305+01205999999ADDGA1025+000305999GA2085+002745999GD11991+0003059GD24991+0027459GF108991999999999999999999MA1102575102255REMMET08201/01/10 21:47:02 SPECI KOAK 020547Z 00000KT 7SM FEW001 OVC009 13/12 A3029 RMK AO2
0300724930232302010010205537+37755-122220FM-15+0027KOAK V0200905N00155002745MN0112655N5+01335+01225102565ADDAA101000095AA206000021GA1025+000305999GA2085+002745999GD11991+0003059GD24991+0027459GF108991999999999999999999KA1999M+01331KA2999N+01221MA1102575102255MD1890059+9999REMMET12301/01/10 21:53:02 METAR KOAK 020553Z 09003KT 7SM FEW001 OVC009 13/12 A3029 RMK AO2 SLP256 60000 T01330122 10133 20122 58005
0311724930232302010010206147+37755-122220FM-16+0027KOAK V0201105N00155007625MN0080475N5+01305+01205999999ADDAA101000021AU110020015AU200001015AW1105AW2615GA1045+002745999GA2075+007625999GA3085+009145999GD12991+0027459GD23991+0076259GD34991+0091459GF108991999999999999999999MA1102545102215MW1101MW2611REMMET10801/01/10 22:14:02 SPECI KOAK 020614Z 11003KT 5SM -RA BR SCT009 BKN025 OVC030 13/12 A3028 RMK AO2 RAB04 P0000
0261724930232302010010206397+37755-122220FM-16+0027KOAK V0209999C00005004275MN0112655N5+01305+01205999999ADDAA101000021GA1025+000305999GA2045+002135999GA3075+004275999GD11991+0003059GD22991+0021359GD33991+0042759GF107991999999999999999999MA1102545102215REMMET10401/01/10 22:39:02 SPECI KOAK 020639Z 00000KT 7SM FEW001 SCT007 BKN014 13/12 A3028 RMK AO2 RAB04E16 P0000
0240724930232302010010206537+37755-122220FM-15+0027KOAK V0209999C00005003355MN0112655N5+01335+01175102555ADDAA101000025GA1025+000305999GA2085+003355999GD11991+0003059GD24991+0033559GF108991999999999999999999MA1102545102215REMMET11401/01/10 22:53:02 METAR KOAK 020653Z 00000KT 7SM FEW001 OVC011 13/12 A3028 RMK AO2 RAB04E16 SLP255 P0000 T01330117
0273724930232302010010207537+37755-122220FM-15+0027KOAK V0202105N00215003355MN0128755N5+01285+01175102535ADDAA101000095GA1025+000615999GA2045+002745999GA3085+003355999GD11991+0006159GD22991+0027459GD34991+0033559GF108991999999999999999999MA1102545102215REMMET11601/01/10 23:53:02 METAR KOAK 020753Z 21004KT 8SM FEW002 SCT009 OVC011 13/12 A3028 RMK AO2 SLP253 T01280117 401610094
0960724930232302010010207596+37755-122220SOD  +0027KOAK V020999999999999999999999999999+99999+99999999999ADDAA124000025AT1AU16RA  5AT2AU13BR  5AX1015245KA1240M+01615KA2240N+00945MG1102304102514OE11240053612008575OE22240040211008575OE33240012199999995REMSOD77124 HR PRECIPITATION (IN):T     WEATHER(CODE):1  24 HR MAX TEMP (F):61 24 HR MAX TEMP TIME (LST):1535 24 HR MIN TEMP (F):49 24 HR MIN TEMP TIME (LST):0714 AVERAGE STATION PRESSURE:30.210 MINIMUM SEA LEVEL PRESSURE:30.27 TIME OF OCCURRENCE:2344 PEAK WIND SPEED (MPH):12  PEAK WIND DIR (DEG):120 PEAK WIND TIME (LST):0857  FASTEST 2MIN SPEED (MPH):9  FASTEST 2MIN DIR (DEG):110 FASTEST 2MIN TIME (LST):0857 AVERAGE WIND SPEED (MPH):2.7  24 HR AVG TEMP (F):55 DEPART FROM NORMAL: +6  HEATING DEGREE DAYS:10  COOLING DEGREE DAYS:0   LATEST DAY MAX TEMP (0700-1900 LST):61  LATEST NIGHT MIN TEMP(1900-0800 LST):49 HOURLY INCREMENTAL PRECIPITATION VALUES (IN):.00 0.00 0.00 0.00 0.00 0.00 0.00 0.00 0.00 0.00 T    0.00 0.00 0.00 0.00 0.00 0.00 0.00 T    0.00 0.00 0.00 T    0.00EQDR01     N7GJS072R02     N7GKS075
0241724930232302010010208437+37755-122220FM-16+0027KOAK V0202805N00155006105MN0128755N5+01205+01105999999ADDGA1025+000615999GA2045+003355999GA3075+006105999GD11991+0006159GD22991+0033559GD33991+0061059GF107991999999999999999999MA1102515102185REMMET09501/02/10 00:43:02 SPECI KOAK 020843Z 28003KT 8SM FEW002 SCT011 BKN020 12/11 A3027 RMK AO2 (MRP)
0306724930232302010010208537+37755-122220FM-15+0027KOAK V0202805N00155006105MN0128755N5+01175+01115102515ADDAA101000095AA203000021GA1025+001225999GA2045+003355999GA3075+006105999GD11991+0012259GD22991+0033559GD33991+0061059GF107991999999999999999999MA1102545102215MD1690059+9999REMMET12401/02/10 00:53:02 METAR KOAK 020853Z 28003KT 8SM FEW004 SCT011 BKN020 12/11 A3028 RMK AO2 SLP251 60000 T01170111 56005 (MRP)
0269724930232302010010209537+37755-122220FM-15+0027KOAK V0203005N00215006715MN0128755N5+01175+01115102515ADDAA101000095GA1025+001225999GA2045+003355999GA3075+006715999GD11991+0012259GD22991+0033559GD33991+0067159GF107991999999999999999999MA1102515102185REMMET11201/02/10 01:53:02 METAR KOAK 020953Z 30004KT 8SM FEW004 SCT011 BKN022 12/11 A3027 RMK AO2 SLP251 T01170111 (MRP)
0295724930232302010010210537+37755-122220FM-15+0027KOAK V0209999C00005007325MN0080475N5+01225+01115102555ADDAA101000095AU100001015AW1105GA1025+001225999GA2045+003355999GA3085+007325999GD11991+0012259GD22991+0033559GD34991+0073259GF108991999999999999999999MA1102545102215MW1101REMMET11501/02/10 02:53:02 METAR KOAK 021053Z 00000KT 5SM BR FEW004 SCT011 OVC024 12/11 A3028 RMK AO2 SLP255 T01220111 (MRP)
0279724930232302010010211137+37755-122220FM-16+0027KOAK V0203105N00215000915MN0048285N5+01205+01205999999ADDAU100001015AW1105GA1075+000915999GA2075+003055999GA3085+006715999GD13991+0009159GD23991+0030559GD34991+0067159GF108991999999999999999999MA1102575102255MW1101REMMET11001/02/10 03:13:02 SPECI KOAK 021113Z 31004KT 3SM BR BKN003 BKN010 OVC022 12/12 A3029 RMK AO2 CIG 001V004 (MRP)
0191724930232302010010211327+37755-122220FM-16+0027KOAK V0203305N00215000915MN0032195N5+01205+01205999999ADDAU100001015AW1105GA1085+000915999GD14991+0009159GF108991999999999999999999MA1102545102215MW1101REMMET08401/02/10 03:32:02 SPECI KOAK 021132Z 33004KT 2SM BR OVC003 12/12 A3028 RMK AO2 (MRP)
0382724930232302010010211537+37755-122220FM-15+0027KOAK V0203305N00215000915MN0032195N5+01285+01225102535ADDAA101000095AA206000021AU100001015AW1105GA1025+000305999GA2075+000915999GA3085+001525999GD11991+0003059GD23991+0009159GD34991+0015259GF108991999999999999999999KA1999M+01391KA2999N+01171MA1102545102215MD1090029+9999MW1101REMMET15101/02/10 03:53:02 METAR KOAK 021153Z 33004KT 2SM BR FEW001 BKN003 OVC005 13/12 A3028 RMK AO2 SLP253 VIS N 1 1/2 60000 T01280122 10139 20117 50002 (MRP)
0244724930232302010010212516+37755-122220FM-16+0027KOAK V0209999C00005001525MN0040235N5+01205+01205999999ADDAU100001015AW1105GA1045+000915999GA2075+001525999GA3085+002135999GD12991+0009159GD23991+0015259GD34991+0021359MA1102545102215REMMET10701/02/10 04:51:02 SPECI KOAK 021251Z 00000KT 2 1/2SM BR SCT003 BKN005 OVC007 12/12 A3028 RMK AO2 FIBI (MRP)
0295724930232302010010212537+37755-122220FM-15+0027KOAK V0203105N00155001525MN0048285N5+01225+01175102535ADDAA101000095AU100001015AW1105GA1045+000915999GA2075+001525999GA3085+002135999GD12991+0009159GD23991+0015259GD34991+0021359GF108991999999999999999999MA1102545102215MW1101REMMET11501/02/10 04:53:02 METAR KOAK 021253Z 31003KT 3SM BR SCT003 BKN005 OVC007 12/12 A3028 RMK AO2 SLP253 T01220117 (MRP)
0269724930232302010010213537+37755-122220FM-15+0027KOAK V0209999C00005002745MN0064375N5+01175+01115102535ADDAA101000095AU100001015AW1105GA1045+000915999GA2085+002745999GD12991+0009159GD24991+0027459GF108991999999999999999999MA1102545102215MW1101REMMET12001/02/10 05:53:02 METAR KOAK 021353Z 00000KT 4SM BR SCT003 OVC009 12/11 A3028 RMK AO2 SLP253 VIS E 2 1/2 T01170111 (MRP)
0242724930232302010010214067+37755-122220FM-16+0027KOAK V0209999C00005000915MN0032195N5+01205+01105999999ADDAU100001015AW1105GA1075+000915999GA2085+002745999GD13991+0009159GD24991+0027459GF108991999999999999999999MA1102545102215MW1101REMMET10401/02/10 06:06:02 SPECI KOAK 021406Z 00000KT 2SM BR BKN003 OVC009 12/11 A3028 RMK AO2 VIS SW-W 1/2 (MRP)
0295724930232302010010214537+37755-122220FM-15+0027KOAK V0201405N00215000915MN0024145N5+01175+01115102535ADDAA101000095AU100001015AW1105GA1045+000305999GA2085+000915999GD12991+0003059GD24991+0009159GF108991999999999999999999MA1102545102215MD1590009+9999MW1101REMMET13201/02/10 06:53:02 METAR KOAK 021453Z 14004KT 1 1/2SM BR SCT001 OVC003 12/11 A3028 RMK AO2 SLP253 VIS SW-NW 1/2 T01170111 55000 (MRP)
0230724930232302010010215047+37755-122220FM-16+0027KOAK V0201405N00215000915MN0004025N5+01105+01105999999ADDAU100002015AW1305GA1075+000915999GA2085+004885999GD13991+0009159GD24991+0048859GF108991999999999999999999MA1102545102215MW1441REMMET09201/02/10 07:04:02 SPECI KOAK 021504Z 14004KT 1/4SM FG BKN003 OVC016 11/11 A3028 RMK AO2 (JB)
0230724930232302010010215137+37755-122220FM-16+0027KOAK V0201405N00265004885MN0004025N5+01105+01105999999ADDAU100002015AW1305GA1045+000915999GA2085+004885999GD12991+0009159GD24991+0048859GF108991999999999999999999MA1102545102215MW1441REMMET09201/02/10 07:13:02 SPECI KOAK 021513Z 14005KT 1/4SM FG SCT003 OVC016 11/11 A3028 RMK AO2 (JB)
0192724930232302010010215427+37755-122220FM-16+0027KOAK V0201405N00265004275MN0008055N5+01105+01105999999ADDAU100002015AW1305GA1085+004275999GD14991+0042759GF108991999999999999999999MA1102545102215MW1441REMMET08501/02/10 07:42:02 SPECI KOAK 021542Z 14005KT 1/2SM FG OVC014 11/11 A3028 RMK AO2 (JB)
0258724930232302010010215537+37755-122220FM-15+0027KOAK V0201405N00215004275MN0008055N5+01115+01065102545ADDAA101000095AU100002015AW1305GA1025+000305999GA2085+004275999GD11991+0003059GD24991+0042759GF108991999999999999999999MA1102545102215MW1441REMMET10901/02/10 07:53:02 METAR KOAK 021553Z 14004KT 1/2SM FG FEW001 OVC014 11/11 A3028 RMK AO2 SLP254 T01110106 (JB)
0228724930232302010010216397+37755-122220FM-16+0027KOAK V0201605N00315003055MN0032195N5+01105+01105999999ADDAU100001015AW1105GA1025+000305999GA2085+003055999GD11991+0003059GD24991+0030559GF108991999999999999999999MA1102575102255MW1101REMMET09001/02/10 08:39:02 SPECI KOAK 021639Z 16006KT 2SM BR FEW001 OVC010 11/11 A3029 RMK AO2 (JB)
0218724930232302010010216537+37755-122220FM-15+0027KOAK V0201505N00215003055MN0048285N5+01175+01065102585ADDAA101000095AU100001015AW1105GA1085+003055999GD14991+0030559GF108991999999999999999999MA1102615102285MW1101REMMET10001/02/10 08:53:02 METAR KOAK 021653Z 15004KT 3SM BR OVC010 12/11 A3030 RMK AO2 SLP258 T01170106 (JB)
0276724930232302010010217537+37755-122220FM-15+0027KOAK V0209999C00005003055MN0048285N5+01175+01115102635ADDAA101000095AU100001015AW1105GA1085+003055999GD14991+0030559GF108991999999999999999999KA1999M+01281KA2999N+01111MA1102645102315MD1390109+9999MW1101REMMET11801/02/10 09:53:02 METAR KOAK 021753Z 00000KT 3SM BR OVC010 12/11 A3031 RMK AO2 SLP263 T01170111 10128 20111 53010 (JB)
0212724930232302010010218537+37755-122220FM-15+0027KOAK V0200505N00315003055MN0080475N5+01335+01065102595ADDAA101000095AU100007015GA1085+003055999GD14991+0030559GF108991999999999999999999MA1102615102285MW1055REMMET10001/02/10 10:53:02 METAR KOAK 021853Z 05006KT 5SM HZ OVC010 13/11 A3030 RMK AO2 SLP259 T01330106 (JB)
0193724930232302010010219537+37755-122220FM-15+0027KOAK V0200505N00215004275MN0160935N5+01395+01065102475ADDAA101000095GA1085+004275999GD14991+0042759GF108991999999999999999999MA1102475102155REMMET09801/02/10 11:53:02 METAR KOAK 021953Z 05004KT 10SM OVC014 14/11 A3026 RMK AO2 SLP247 T01390106 (JB)
0213724930232302010010220537+37755-122220FM-15+0027KOAK V0209999C00005004275MN0160935N5+01395+01005102425ADDAA101000095GA1085+004275999GD14991+0042759GF108991999999999999999999MA1102445102115MD1890219+9999REMMET10401/02/10 12:53:02 METAR KOAK 022053Z 00000KT 10SM OVC014 14/10 A3025 RMK AO2 SLP242 T01390100 58021 (JB)
0165724930232302010010221387+37755-122220FM-16+0027KOAK V0209999C00005005185MN0160935N5+01305+01005999999ADDGA1075+005185999GD13991+0051859GF107991999999999999999999MA1102375102045REMMET08101/02/10 13:38:02 SPECI KOAK 022138Z 00000KT 10SM BKN017 13/10 A3023 RMK AO2 (JB)
0193724930232302010010221537+37755-122220FM-15+0027KOAK V0202705N00155005185MN0160935N5+01395+01005102375ADDAA101000095GA1075+005185999GD13991+0051859GF107991999999999999999999MA1102375102045REMMET09801/02/10 13:53:02 METAR KOAK 022153Z 27003KT 10SM BKN017 14/10 A3023 RMK AO2 SLP237 T01390100 (JB)
0193724930232302010010222537+37755-122220FM-15+0027KOAK V0203005N00415005185MN0160935N5+01285+01005102355ADDAA101000095GA1075+005185999GD13991+0051859GF107991999999999999999999MA1102375102045REMMET09801/02/10 14:53:02 METAR KOAK 022253Z 30008KT 10SM BKN017 13/10 A3023 RMK AO2 SLP235 T01280100 (JB)
0327724930232302010010223537+37755-122220FM-15+0027KOAK V0200505N00265045725MN0160935N5+01395+00895102355ADDAA101000095GA1045+006405999GA2075+045725999GA3075+060965999GD12991+0064059GD23991+0457259GD33991+0609659GF107991999999999999999999KA1999M+01441KA2999N+01171MA1102375102045MD1690079+9999REMMET13001/02/10 15:53:02 METAR KOAK 022353Z 05005KT 10SM SCT021 BKN150 BKN200 14/09 A3023 RMK AO2 SLP235 T01390089 10144 20117 56007 (KC)
0264724930232302010010300537+37755-122220FM-15+0027KOAK V0200605N00215060965MN0160935N5+01225+00895102345ADDAA101000095GA1025+006405999GA2045+045725999GA3075+060965999GD11991+0064059GD22991+0457259GD33991+0609659GF107991999999999999999999MA1102375102045REMMET10701/02/10 16:53:01 METAR KOAK 030053Z 06004KT 10SM FEW021 SCT150 BKN200 12/09 A3023 RMK AO2 SLP234 T01220089
0226724930232302010010301537+37755-122220FM-15+0027KOAK V0201105N00215060965MN0160935N5+01175+00895102335ADDAA101000095GA1025+006105999GA2075+060965999GD11991+0061059GD23991+0609659GF107991999999999999999999MA1102345102015REMMET10001/02/10 17:53:02 METAR KOAK 030153Z 11004KT 10SM FEW020 BKN200 12/09 A3022 RMK AO2 SLP233 T01170089
0208724930232302010010302537+37755-122220FM-15+0027KOAK V0201105N001552200059N0160935N5+01115+00835102365ADDAA101000095GA1045+060965999GD12991+0609659GF104991999999999999999999MA1102375102045MD1390029+9999REMMET09901/02/10 18:53:02 METAR KOAK 030253Z 11003KT 10SM SCT200 11/08 A3023 RMK AO2 SLP236 T01110083 53002
0188724930232302010010303537+37755-122220FM-15+0027KOAK V0200905N002152200059N0160935N5+00945+00785102365ADDAA101000095GA1045+060965999GD12991+0609659GF104991999999999999999999MA1102375102045REMMET09301/02/10 19:53:02 METAR KOAK 030353Z 09004KT 10SM SCT200 09/08 A3023 RMK AO2 SLP236 T00940078
0188724930232302010010304537+37755-122220FM-15+0027KOAK V0200705N00155060965MN0160935N5+00895+00725102385ADDAA101000095GA1075+060965999GD13991+0609659GF107991999999999999999999MA1102405102085REMMET09301/02/10 20:53:02 METAR KOAK 030453Z 07003KT 10SM BKN200 09/07 A3024 RMK AO2 SLP238 T00890072
0284724930232302010010305537+37755-122220FM-15+0027KOAK V0200905N00155060965MN0160935N5+00945+00725102385ADDAA101000095GA1025+006105999GA2075+060965999GD11991+0061059GD23991+0609659GF107991999999999999999999KA1999M+01391KA2999N+00781MA1102405102085MD1290019+9999REMMET11801/02/10 21:53:01 METAR KOAK 030553Z 09003KT 10SM FEW020 BKN200 09/07 A3024 RMK AO2 SLP238 T00940072 10139 20078 52001
0226724930232302010010306537+37755-122220FM-15+0027KOAK V0209999C00005060965MN0160935N5+00895+00725102385ADDAA101000095GA1025+006105999GA2075+060965999GD11991+0061059GD23991+0609659GF107991999999999999999999MA1102405102085REMMET10001/02/10 22:53:02 METAR KOAK 030653Z 00000KT 10SM FEW020 BKN200 09/07 A3024 RMK AO2 SLP238 T00890072
0198724930232302010010307537+37755-122220FM-15+0027KOAK V0200905N00215060965MN0160935N5+00835+00675102315ADDAA101000095GA1075+060965999GD13991+0609659GF107991999999999999999999MA1102345102015REMMET10301/02/10 23:53:01 METAR KOAK 030753Z 09004KT 10SM BKN200 08/07 A3022 RMK AO2 SLP231 T00830067 401440078
1042724930232302010010307596+37755-122220SOD  +0027KOAK V020999999999999999999999999999+99999+99999999999ADDAA124000095AT1AU01FG  5AT2AU13BR  5AT3AU08HZ  5AX1016246AX2026246AX3086246KA1240M+01445KA2240N+00785MG1102134102304OE11240062631014455OE22240053630014465OE33240016599999995REMSOD77524 HR PRECIPITATION (IN):0.00  WEATHER(CODE):1,2,8  24 HR MAX TEMP (F):58 24 HR MAX TEMP TIME (LST):1314 24 HR MIN TEMP (F):46 24 HR MIN TEMP TIME (LST):2329 AVERAGE STATION PRESSURE:30.160 MINIMUM SEA LEVEL PRESSURE:30.21 TIME OF OCCURRENCE:2359 PEAK WIND SPEED (MPH):14  PEAK WIND DIR (DEG):310 PEAK WIND TIME (LST):1445  FASTEST 2MIN SPEED (MPH):12 FASTEST 2MIN DIR (DEG):300 FASTEST 2MIN TIME (LST):1446 AVERAGE WIND SPEED (MPH):3.7  24 HR AVG TEMP (F):52 DEPART FROM NORMAL: +3  HEATING DEGREE DAYS:13  COOLING DEGREE DAYS:0   LATEST DAY MAX TEMP (0700-1900 LST):58  LATEST NIGHT MIN TEMP(1900-0800 LST):52 HOURLY INCREMENTAL PRECIPITATION VALUES (IN):.00 0.00 0.00 0.00 0.00 0.00 0.00 0.00 0.00 0.00 0.00 0.00 0.00 0.00 0.00 0.00 0.00 0.00 0.00 0.00 0.00 0.00 0.00 0.00EQDR01 1,2,87AXW090R02 1,2,87AXW090R03 1,2,87AXW090R04     N7GJS072R05     N7GKS075
0213724930232302010010308537+37755-122220FM-15+0027KOAK V0201105N00265076205MN0160935N5+00895+00675102255ADDAA101000095GA1075+076205999GD13991+0762059GF107991999999999999999999MA1102275101945MD1890139+9999REMMET10401/03/10 00:53:02 METAR KOAK 030853Z 11005KT 10SM BKN250 09/07 A3020 RMK AO2 SLP225 T00890067 58013 (RC)
0193724930232302010010309537+37755-122220FM-15+0027KOAK V0209999V002152200059N0160935N5+00785+00615102235ADDAA101000095GA1045+076205999GD12991+0762059GF104991999999999999999999MA1102245101915REMMET09801/03/10 01:53:02 METAR KOAK 030953Z VRB04KT 10SM SCT250 08/06 A3019 RMK AO2 SLP223 T00780061 (RC)
0193724930232302010010310537+37755-122220FM-15+0027KOAK V0200805N002652200059N0160935N5+00675+00505102215ADDAA101000095GA1045+076205999GD12991+0762059GF104991999999999999999999MA1102245101915REMMET09801/03/10 02:53:02 METAR KOAK 031053Z 08005KT 10SM SCT250 07/05 A3019 RMK AO2 SLP221 T00670050 (RC)
0289724930232302010010311537+37755-122220FM-15+0027KOAK V0201205N003652200059N0160935N5+00835+00615102205ADDAA101000095GA1025+003055999GA2045+076205999GD11991+0030559GD22991+0762059GF104991999999999999999999KA1999M+00941KA2999N+00611MA1102205101875MD1690059+9999REMMET12301/03/10 03:53:02 METAR KOAK 031153Z 12007KT 10SM FEW010 SCT250 08/06 A3018 RMK AO2 SLP220 T00830061 10094 20061 56005 (RC)
0193724930232302010010312537+37755-122220FM-15+0027KOAK V0209999C00005076205MN0160935N5+00785+00615102205ADDAA101000095GA1075+076205999GD13991+0762059GF107991999999999999999999MA1102205101875REMMET09801/03/10 04:53:02 METAR KOAK 031253Z 00000KT 10SM BKN250 08/06 A3018 RMK AO2 SLP220 T00780061 (RC)
0193724930232302010010313537+37755-122220FM-15+0027KOAK V0209999C00005076205MN0160935N5+00785+00615102195ADDAA101000095GA1075+076205999GD13991+0762059GF107991999999999999999999MA1102205101875REMMET09801/03/10 05:53:02 METAR KOAK 031353Z 00000KT 10SM BKN250 08/06 A3018 RMK AO2 SLP219 T00780061 (RC)
0213724930232302010010314537+37755-122220FM-15+0027KOAK V0209999C000052200059N0160935N5+00565+00395102185ADDAA101000095GA1045+076205999GD12991+0762059GF104991999999999999999999MA1102205101875MD1890029+9999REMMET10401/03/10 06:53:02 METAR KOAK 031453Z 00000KT 10SM SCT250 06/04 A3018 RMK AO2 SLP218 T00560039 58002 (RC)
0194724930232302010010315537+37755-122220FM-15+0027KOAK V0209999C000052200059N0160935N5+00615+00565102195ADDAA101000095GA1045+076205999GD12991+0762059GF104991999999999999999999MA1102205101875REMMET09901/03/10 07:53:02 METAR KOAK 031553Z 00000KT 10SM SCT250 06/06 A3018 RMK AO2 SLP219 T00610056 (LGC)
0194724930232302010010316537+37755-122220FM-15+0027KOAK V0201105N001552200059N0160935N5+00945+00725102225ADDAA101000095GA1045+076205999GD12991+0762059GF104991999999999999999999MA1102245101915REMMET09901/03/10 08:53:02 METAR KOAK 031653Z 11003KT 10SM SCT250 09/07 A3019 RMK AO2 SLP222 T00940072 (LGC)
0252724930232302010010317537+37755-122220FM-15+0027KOAK V0202105N001552200059N0160935N5+01065+00835102235ADDAA101000095GA1045+076205999GD12991+0762059GF104991999999999999999999KA1999M+01061KA2999N+00501MA1102245101915MD1390059+9999REMMET11701/03/10 09:53:02 METAR KOAK 031753Z 21003KT 10SM SCT250 11/08 A3019 RMK AO2 SLP223 T01060083 10106 20050 53005 (LGC)
0194724930232302010010318537+37755-122220FM-15+0027KOAK V0202205N002652200059N0160935N5+01065+00835102205ADDAA101000095GA1045+076205999GD12991+0762059GF104991999999999999999999MA1102205101875REMMET09901/03/10 10:53:02 METAR KOAK 031853Z 22005KT 10SM SCT250 11/08 A3018 RMK AO2 SLP220 T01060083 (LGC)
0232724930232302010010319537+37755-122220FM-15+0027KOAK V0202605N002152200059N0160935N5+01115+00835102125ADDAA101000095GA1025+009145999GA2045+076205999GD11991+0091459GD22991+0762059GF104991999999999999999999MA1102135101815REMMET10601/03/10 11:53:02 METAR KOAK 031953Z 26004KT 10SM FEW030 SCT250 11/08 A3016 RMK AO2 SLP212 T01110083 (LGC)
0252724930232302010010320537+37755-122220FM-15+0027KOAK V0202305N002152200059N0160935N5+01175+00785102025ADDAA101000095GA1025+007625999GA2045+076205999GD11991+0076259GD22991+0762059GF104991999999999999999999MA1102035101715MD1890219+9999REMMET11201/03/10 12:53:02 METAR KOAK 032053Z 23004KT 10SM FEW025 SCT250 12/08 A3013 RMK AO2 SLP202 T01170078 58021 (LGC)
0232724930232302010010321537+37755-122220FM-15+0027KOAK V0202205N002652200059N0160935N5+01225+00785101985ADDAA101000095GA1025+007625999GA2045+076205999GD11991+0076259GD22991+0762059GF104991999999999999999999MA1102005101675REMMET10601/03/10 13:53:02 METAR KOAK 032153Z 22005KT 10SM FEW025 SCT250 12/08 A3012 RMK AO2 SLP198 T01220078 (LGC)
0232724930232302010010322537+37755-122220FM-15+0027KOAK V0202505N001552200059N0160935N5+01225+00895101995ADDAA101000095GA1025+007625999GA2045+076205999GD11991+0076259GD22991+0762059GF104991999999999999999999MA1102005101675REMMET10601/03/10 14:53:02 METAR KOAK 032253Z 25003KT 10SM FEW025 SCT250 12/09 A3012 RMK AO2 SLP199 T01220089 (LGC)
0289724930232302010010323537+37755-122220FM-15+0027KOAK V0209999C000052200059N0160935N5+01335+00895101985ADDAA101000095GA1025+007625999GA2045+076205999GD11991+0076259GD22991+0762059GF104991999999999999999999KA1999M+01331KA2999N+01001MA1102005101675MD1690049+9999REMMET12301/03/10 15:53:02 METAR KOAK 032353Z 00000KT 10SM FEW025 SCT250 13/09 A3012 RMK AO2 SLP198 T01330089 10133 20100 56004 (JB)
0226724930232302010010400537+37755-122220FM-15+0027KOAK V0200505N004652200059N0160935N5+01175+00785101975ADDAA101000095GA1025+007625999GA2045+076205999GD11991+0076259GD22991+0762059GF104991999999999999999999MA1101965101645REMMET10001/03/10 16:53:02 METAR KOAK 040053Z 05009KT 10SM FEW025 SCT250 12/08 A3011 RMK AO2 SLP197 T01170078
0226724930232302010010401537+37755-122220FM-15+0027KOAK V0200605N005152200059N0160935N5+01005+00725102015ADDAA101000095GA1025+007625999GA2045+076205999GD11991+0076259GD22991+0762059GF104991999999999999999999MA1102035101715REMMET10001/03/10 17:53:02 METAR KOAK 040153Z 06010KT 10SM FEW025 SCT250 10/07 A3013 RMK AO2 SLP201 T01000072
0246724930232302010010402537+37755-122220FM-15+0027KOAK V0200705N005752200059N0160935N5+00945+00675102055ADDAA101000095GA1025+007625999GA2045+076205999GD11991+0076259GD22991+0762059GF104991999999999999999999MA1102075101745MD1390069+9999REMMET10601/03/10 18:53:02 METAR KOAK 040253Z 07011KT 10SM FEW025 SCT250 09/07 A3014 RMK AO2 SLP205 T00940067 53006
0226724930232302010010403537+37755-122220FM-15+0027KOAK V0200705N003652200059N0160935N5+00895+00615102075ADDAA101000095GA1025+007625999GA2045+076205999GD11991+0076259GD22991+0762059GF104991999999999999999999MA1102075101745REMMET10001/03/10 19:53:01 METAR KOAK 040353Z 07007KT 10SM FEW025 SCT250 09/06 A3014 RMK AO2 SLP207 T00890061
0226724930232302010010404537+37755-122220FM-15+0027KOAK V0200805N003652200059N0160935N5+00895+00615102105ADDAA101000095GA1025+007625999GA2045+076205999GD11991+0076259GD22991+0762059GF104991999999999999999999MA1102105101775REMMET10001/03/10 20:53:02 METAR KOAK 040453Z 08007KT 10SM FEW025 SCT250 09/06 A3015 RMK AO2 SLP210 T00890061
0246724930232302010010405537+37755-122220FM-15+0027KOAK V0200305N001552200059N0160935N5+00895+00615102105ADDAA101000095GA1025+076205999GD11991+0762059GF102991999999999999999999KA1999M+01391KA2999N+00831MA1102105101775MD1090059+9999REMMET11101/03/10 21:53:02 METAR KOAK 040553Z 03003KT 10SM FEW250 09/06 A3015 RMK AO2 SLP210 T00890061 10139 20083 50005
0188724930232302010010406537+37755-122220FM-15+0027KOAK V0200805N005752200059N0160935N5+00895+00565102125ADDAA101000095GA1025+076205999GD11991+0762059GF102991999999999999999999MA1102135101815REMMET09301/03/10 22:53:02 METAR KOAK 040653Z 08011KT 10SM FEW250 09/06 A3016 RMK AO2 SLP212 T00890056
0198724930232302010010407537+37755-122220FM-15+0027KOAK V0200805N005152200059N0160935N5+00835+00565102135ADDAA101000095GA1025+076205999GD11991+0762059GF102991999999999999999999MA1102135101815REMMET10301/03/10 23:53:02 METAR KOAK 040753Z 08010KT 10SM FEW250 08/06 A3016 RMK AO2 SLP213 T00830056 401390050
0910724930232302010010407596+37755-122220SOD  +0027KOAK V020999999999999999999999999999+99999+99999999999ADDAA124000095KA1240M+01395KA2240N+00505MG1101794101964OE11240076008023005OE22240067107018325OE33240025099999995REMSOD75424 HR PRECIPITATION (IN):0.00  24 HR MAX TEMP (F):57 24 HR MAX TEMP TIME (LST):1608 24 HR MIN TEMP (F):41 24 HR MIN TEMP TIME (LST):0801 AVERAGE STATION PRESSURE:30.060 MINIMUM SEA LEVEL PRESSURE:30.11 TIME OF OCCURRENCE:1704 PEAK WIND SPEED (MPH):17  PEAK WIND DIR (DEG):80  PEAK WIND TIME (LST):2300  FASTEST 2MIN SPEED (MPH):15 FASTEST 2MIN DIR (DEG):70  FASTEST 2MIN TIME (LST):1832 AVERAGE WIND SPEED (MPH):5.6  24 HR AVG TEMP (F):49 DEPART FROM NORMAL: 0   HEATING DEGREE DAYS:16  COOLING DEGREE DAYS:0   LATEST DAY MAX TEMP (0700-1900 LST):57  LATEST NIGHT MIN TEMP(1900-0800 LST):41 HOURLY INCREMENTAL PRECIPITATION VALUES (IN):.00 0.00 0.00 0.00 0.00 0.00 0.00 0.00 0.00 0.00 0.00 0.00 0.00 0.00 0.00 0.00 0.00 0.00 0.00 0.00 0.00 0.00 0.00 0.00EQDR01     N7GJS072R02     N7GKS075
0214724930232302010010408537+37755-122220FM-15+0027KOAK V0200805N004652200059N0160935N5+00835+00565102075ADDAA101000095GF100991999999999999999999MA1102105101775MD1890039+9999REMMET10101/04/10 00:53:02 METAR KOAK 040853Z 08009KT 10SM CLR 08/06 A3015 RMK AO2 SLP207 T00830056 58003 (DB)EQDQ01    099SCCGD1P01    003SCCGA1
0194724930232302010010409537+37755-122220FM-15+0027KOAK V0200705N002152200059N0160935N5+00725+00565102105ADDAA101000095GF100991999999999999999999MA1102105101775REMMET09501/04/10 01:53:02 METAR KOAK 040953Z 07004KT 10SM CLR 07/06 A3015 RMK AO2 SLP210 T00720056 (DB)EQDQ01    099SCCGD1P01    003SCCGA1
0194724930232302010010410537+37755-122220FM-15+0027KOAK V0200605N002652200059N0160935N5+00615+00445102105ADDAA101000095GF100991999999999999999999MA1102105101775REMMET09501/04/10 02:53:02 METAR KOAK 041053Z 06005KT 10SM CLR 06/04 A3015 RMK AO2 SLP210 T00610044 (DB)EQDQ01    099SCCGD1P01    003SCCGA1
0251724930232302010010411537+37755-122220FM-15+0027KOAK V0200905N004152200059N0128755N5+00725+00505102105ADDAA101000095GF100991999999999999999999KA1999M+00941KA2999N+00611MA1102105101775MD1190039+9999REMMET11201/04/10 03:53:02 METAR KOAK 041153Z 09008KT 8SM CLR 07/05 A3015 RMK AO2 SLP210 T00720050 10094 20061 51003 (DB)EQDQ01    099SCCGD1P01    003SCCGA1
0193724930232302010010412537+37755-122220FM-15+0027KOAK V0200905N004652200059N0128755N5+00725+00505102115ADDAA101000095GF100991999999999999999999MA1102135101815REMMET09401/04/10 04:53:02 METAR KOAK 041253Z 09009KT 8SM CLR 07/05 A3016 RMK AO2 SLP211 T00720050 (DB)EQDQ01    099SCCGD1P01    003SCCGA1
0193724930232302010010413537+37755-122220FM-15+0027KOAK V0200905N003152200059N0112655N5+00725+00505102135ADDAA101000095GF100991999999999999999999MA1102135101815REMMET09401/04/10 05:53:02 METAR KOAK 041353Z 09006KT 7SM CLR 07/05 A3016 RMK AO2 SLP213 T00720050 (DB)EQDQ01    099SCCGD1P01    003SCCGA1
0213724930232302010010414537+37755-122220FM-15+0027KOAK V0201005N003152200059N0160935N5+00675+00445102135ADDAA101000095GA1025+076205999GD11991+0762059GF102991999999999999999999MA1102135101815MD1090039+9999REMMET10401/04/10 06:53:02 METAR KOAK 041453Z 10006KT 10SM FEW250 07/04 A3016 RMK AO2 SLP213 T00670044 50003 (DB)
0218724930232302010010415537+37755-122220FM-15+0027KOAK V0201005N003652200059N0080475N5+00675+00445102195ADDAA101000095AU100001015AW1105GA1025+004575999GD11991+0045759GF102991999999999999999999MA1102205101875MW1101REMMET10001/04/10 07:53:02 METAR KOAK 041553Z 10007KT 5SM BR FEW015 07/04 A3018 RMK AO2 SLP219 T00670044 (LM)
0212724930232302010010416537+37755-122220FM-15+0027KOAK V0200805N003652200059N0080475N5+00835+00565102215ADDAA101000095AU100007015GA1025+004575999GD11991+0045759GF102991999999999999999999MA1102245101915MW1055REMMET10001/04/10 08:53:02 METAR KOAK 041653Z 08007KT 5SM HZ FEW015 08/06 A3019 RMK AO2 SLP221 T00830056 (LM)
0270724930232302010010417537+37755-122220FM-15+0027KOAK V0200905N003652200059N0096565N5+00945+00565102235ADDAA101000095AU100007015GA1025+004575999GD11991+0045759GF102991999999999999999999KA1999M+00941KA2999N+00671MA1102245101915MD1190119+9999MW1055REMMET11801/04/10 09:53:02 METAR KOAK 041753Z 09007KT 6SM HZ FEW015 09/06 A3019 RMK AO2 SLP223 T00940056 10094 20067 51011 (LM)
0192724930232302010010418537+37755-122220FM-15+0027KOAK V0200805N001552200059N0112655N5+01115+00565102265ADDAA101000095GA1025+004575999GD11991+0045759GF102991999999999999999999MA1102275101945REMMET09701/04/10 10:53:02 METAR KOAK 041853Z 08003KT 7SM FEW015 11/06 A3020 RMK AO2 SLP226 T01110056 (LM)
0192724930232302010010419537+37755-122220FM-15+0027KOAK V0201105N003152200059N0112655N5+01225+00615102215ADDAA101000095GA1025+004575999GD11991+0045759GF102991999999999999999999MA1102245101915REMMET09701/04/10 11:53:02 METAR KOAK 041953Z 11006KT 7SM FEW015 12/06 A3019 RMK AO2 SLP221 T01220061 (LM)
0232724930232302010010420537+37755-122220FM-15+0027KOAK V0202605N003652200059N0080475N5+01005+00675102165ADDAA101000095AU100007015GA1025+004575999GD11991+0045759GF102991999999999999999999MA1102175101845MD1890089+9999MW1055REMMET10601/04/10 12:53:02 METAR KOAK 042053Z 26007KT 5SM HZ FEW015 10/07 A3017 RMK AO2 SLP216 T01000067 58008 (LM)
0212724930232302010010421537+37755-122220FM-15+0027KOAK V0202405N002652200059N0080475N5+01005+00675102085ADDAA101000095AU100007015GA1025+004575999GD11991+0045759GF102991999999999999999999MA1102105101775MW1055REMMET10001/04/10 13:53:02 METAR KOAK 042153Z 24005KT 5SM HZ FEW015 10/07 A3015 RMK AO2 SLP208 T01000067 (LM)
0212724930232302010010422537+37755-122220FM-15+0027KOAK V0202505N002152200059N0080475N5+01115+00675102045ADDAA101000095AU100007015GA1025+060965999GD11991+0609659GF102991999999999999999999MA1102075101745MW1055REMMET10001/04/10 14:53:02 METAR KOAK 042253Z 25004KT 5SM HZ FEW200 11/07 A3014 RMK AO2 SLP204 T01110067 (LM)
0270724930232302010010423537+37755-122220FM-15+0027KOAK V0202405N001552200059N0080475N5+01065+00675102065ADDAA101000095AU100007015GA1025+060965999GD11991+0609659GF102991999999999999999999KA1999M+01221KA2999N+00941MA1102075101745MD1590109+9999MW1055REMMET11801/04/10 15:53:02 METAR KOAK 042353Z 24003KT 5SM HZ FEW200 11/07 A3014 RMK AO2 SLP206 T01060067 10122 20094 55010 (JB)
0207724930232302010010500537+37755-122220FM-15+0027KOAK V0202505N002152200059N0080475N5+01005+00675102045ADDAA101000095AU100007015GA1025+060965999GD11991+0609659GF102991999999999999999999MA1102075101745MW1055REMMET09501/04/10 16:53:02 METAR KOAK 050053Z 25004KT 5SM HZ FEW200 10/07 A3014 RMK AO2 SLP204 T01000067
0207724930232302010010501537+37755-122220FM-15+0027KOAK V0202605N001552200059N0096565N5+01005+00725102075ADDAA101000095AU100007015GA1045+060965999GD12991+0609659GF104991999999999999999999MA1102105101775MW1055REMMET09501/04/10 17:53:02 METAR KOAK 050153Z 26003KT 6SM HZ SCT200 10/07 A3015 RMK AO2 SLP207 T01000072
0207724930232302010010502537+37755-122220FM-15+0027KOAK V0209999C000052200059N0128755N5+00785+00675102105ADDAA101000095GA1045+060965999GD12991+0609659GF104991999999999999999999MA1102105101775MD1390049+9999REMMET09801/04/10 18:53:01 METAR KOAK 050253Z 00000KT 8SM SCT200 08/07 A3015 RMK AO2 SLP210 T00780067 53004
0187724930232302010010503537+37755-122220FM-15+0027KOAK V0201105N001552200059N0128755N5+00835+00565102095ADDAA101000095GA1045+060965999GD12991+0609659GF104991999999999999999999MA1102105101775REMMET09201/04/10 19:53:01 METAR KOAK 050353Z 11003KT 8SM SCT200 08/06 A3015 RMK AO2 SLP209 T00830056
0187724930232302010010504537+37755-122220FM-15+0027KOAK V0209999C000052200059N0128755N5+00835+00565102165ADDAA101000095GA1045+060965999GD12991+0609659GF104991999999999999999999MA1102175101845REMMET09201/04/10 20:53:01 METAR KOAK 050453Z 00000KT 8SM SCT200 08/06 A3017 RMK AO2 SLP216 T00830056
0245724930232302010010505537+37755-122220FM-15+0027KOAK V0209999C000052200059N0144845N5+00785+00445102165ADDAA101000095GA1045+060965999GD12991+0609659GF104991999999999999999999KA1999M+01061KA2999N+00561MA1102175101845MD1390069+9999REMMET11001/04/10 21:53:02 METAR KOAK 050553Z 00000KT 9SM SCT200 08/04 A3017 RMK AO2 SLP216 T00780044 10106 20056 53006
0187724930232302010010506537+37755-122220FM-15+0027KOAK V0209999C000052200059N0128755N5+00725+00565102195ADDAA101000095GA1025+060965999GD11991+0609659GF102991999999999999999999MA1102205101875REMMET09201/04/10 22:53:02 METAR KOAK 050653Z 00000KT 8SM FEW200 07/06 A3018 RMK AO2 SLP219 T00720056
0198724930232302010010507537+37755-122220FM-15+0027KOAK V0209999C000052200059N0160935N5+00725+00505102185ADDAA101000095GA1025+060965999GD11991+0609659GF102991999999999999999999MA1102205101875REMMET10301/04/10 23:53:02 METAR KOAK 050753Z 00000KT 10SM FEW200 07/05 A3018 RMK AO2 SLP218 T00720050 401220050
0971724930232302010010507596+37755-122220SOD  +0027KOAK V020999999999999999999999999999+99999+99999999999ADDAA124000095AT1AU13BR  5AT2AU08HZ  5AX1015245AX2085245KA1240M+01225KA2240N+00505MG1101794102034OE11240067109000485OE22240058109005125OE33240022899999995REMSOD77324 HR PRECIPITATION (IN):0.00  WEATHER(CODE):1,8  24 HR MAX TEMP (F):54 24 HR MAX TEMP TIME (LST):1205 24 HR MIN TEMP (F):41 24 HR MIN TEMP TIME (LST):2303 AVERAGE STATION PRESSURE:30.060 MINIMUM SEA LEVEL PRESSURE:30.13 TIME OF OCCURRENCE:1739 PEAK WIND SPEED (MPH):15  PEAK WIND DIR (DEG):90  PEAK WIND TIME (LST):0048  FASTEST 2MIN SPEED (MPH):13 FASTEST 2MIN DIR (DEG):90  FASTEST 2MIN TIME (LST):0512 AVERAGE WIND SPEED (MPH):5.1  24 HR AVG TEMP (F):48 DEPART FROM NORMAL: -1  HEATING DEGREE DAYS:17  COOLING DEGREE DAYS:0   LATEST DAY MAX TEMP (0700-1900 LST):54  LATEST NIGHT MIN TEMP(1900-0800 LST):43 HOURLY INCREMENTAL PRECIPITATION VALUES (IN):.00 0.00 0.00 0.00 0.00 0.00 0.00 0.00 0.00 0.00 0.00 0.00 0.00 0.00 0.00 0.00 0.00 0.00 0.00 0.00 0.00 0.00 0.00 0.00EQDR01     N7GJS072R02     N7GKS075
0214724930232302010010508537+37755-122220FM-15+0027KOAK V0209999C000052200059N0160935N5+00725+00505102195ADDAA101000095GF100991999999999999999999MA1102205101875MD1190039+9999REMMET10101/05/10 00:53:02 METAR KOAK 050853Z 00000KT 10SM CLR 07/05 A3018 RMK AO2 SLP219 T00720050 51003 (DB)EQDQ01    099SCCGD1P01    003SCCGA1
0193724930232302010010509537+37755-122220FM-15+0027KOAK V0201205N002152200059N0144845N5+00675+00445102145ADDAA101000095GF100991999999999999999999MA1102175101845REMMET09401/05/10 01:53:02 METAR KOAK 050953Z 12004KT 9SM CLR 07/04 A3017 RMK AO2 SLP214 T00670044 (DB)EQDQ01    099SCCGD1P01    003SCCGA1
0193724930232302010010510537+37755-122220FM-15+0027KOAK V0201205N005152200059N0144845N5+00785+00565102125ADDAA101000095GF100991999999999999999999MA1102135101815REMMET09401/05/10 02:53:02 METAR KOAK 051053Z 12010KT 9SM CLR 08/06 A3016 RMK AO2 SLP212 T00780056 (DB)EQDQ01    099SCCGD1P01    003SCCGA1
0251724930232302010010511537+37755-122220FM-15+0027KOAK V0201205N002652200059N0128755N5+00785+00615102145ADDAA101000095GF100991999999999999999999KA1999M+00831KA2999N+00441MA1102175101845MD1590059+9999REMMET11201/05/10 03:53:02 METAR KOAK 051153Z 12005KT 8SM CLR 08/06 A3017 RMK AO2 SLP214 T00780061 10083 20044 55005 (DB)EQDQ01    099SCCGD1P01    003SCCGA1
0193724930232302010010512537+37755-122220FM-15+0027KOAK V0200805N001552200059N0128755N5+00615+00505102105ADDAA101000095GF100991999999999999999999MA1102105101775REMMET09401/05/10 04:53:02 METAR KOAK 051253Z 08003KT 8SM CLR 06/05 A3015 RMK AO2 SLP210 T00610050 (DB)EQDQ01    099SCCGD1P01    003SCCGA1
0218724930232302010010513537+37755-122220FM-15+0027KOAK V0203205N00155060965MN0096565N5+00565+00445102225ADDAA101000095AU100001015AW1105GA1075+060965999GD13991+0609659GF107991999999999999999999MA1102245101915MW1101REMMET10001/05/10 05:53:02 METAR KOAK 051353Z 32003KT 6SM BR BKN200 06/04 A3019 RMK AO2 SLP222 T00560044 (DB)
0238724930232302010010514537+37755-122220FM-15+0027KOAK V0209999C00005060965MN0080475N5+00725+00615102275ADDAA101000095AU100001015AW1105GA1075+060965999GD13991+0609659GF107991999999999999999999MA1102275101945MD1390129+9999MW1101REMMET10601/05/10 06:53:02 METAR KOAK 051453Z 00000KT 5SM BR BKN200 07/06 A3020 RMK AO2 SLP227 T00720061 53012 (DB)
0256724930232302010010515537+37755-122220FM-15+0027KOAK V0201305N00315019815MN0064375N5+00785+00615102285ADDAA101000095AU100001015AW1105GA1075+019815999GA2075+060965999GD13991+0198159GD23991+0609659GF107991999999999999999999MA1102305101985MW1101REMMET10701/05/10 07:53:02 METAR KOAK 051553Z 13006KT 4SM BR BKN065 BKN200 08/06 A3021 RMK AO2 SLP228 T00780061 (LM)
0250724930232302010010516537+37755-122220FM-15+0027KOAK V0201405N00465042675MN0064375N5+00895+00615102315ADDAA101000095AU100007015GA1045+019815999GA2075+042675999GD12991+0198159GD23991+0426759GF107991999999999999999999MA1102345102015MW1055REMMET10701/05/10 08:53:02 METAR KOAK 051653Z 14009KT 4SM HZ SCT065 BKN140 09/06 A3022 RMK AO2 SLP231 T00890061 (LM)
0308724930232302010010517537+37755-122220FM-15+0027KOAK V0201305N00365042675MN0064375N5+00945+00615102365ADDAA101000095AU100007015GA1045+019815999GA2075+042675999GD12991+0198159GD23991+0426759GF107991999999999999999999KA1999M+00941KA2999N+00501MA1102375102045MD1390109+9999MW1055REMMET12501/05/10 09:53:02 METAR KOAK 051753Z 13007KT 4SM HZ SCT065 BKN140 09/06 A3023 RMK AO2 SLP236 T00940061 10094 20050 53010 (LM)
0250724930232302010010518537+37755-122220FM-15+0027KOAK V0201605N00315042675MN0064375N5+01005+00725102325ADDAA101000095AU100007015GA1045+019815999GA2085+042675999GD12991+0198159GD24991+0426759GF108991999999999999999999MA1102345102015MW1055REMMET10701/05/10 10:53:02 METAR KOAK 051853Z 16006KT 4SM HZ SCT065 OVC140 10/07 A3022 RMK AO2 SLP232 T01000072 (LM)
0250724930232302010010519537+37755-122220FM-15+0027KOAK V0202805N00265042675MN0064375N5+01005+00725102255ADDAA101000095AU100007015GA1045+019815999GA2075+042675999GD12991+0198159GD23991+0426759GF107991999999999999999999MA1102275101945MW1055REMMET10701/05/10 11:53:02 METAR KOAK 051953Z 28005KT 4SM HZ SCT065 BKN140 10/07 A3020 RMK AO2 SLP225 T01000072 (LM)
0270724930232302010010520537+37755-122220FM-15+0027KOAK V0202805N00365042675MN0064375N5+01115+00725102145ADDAA101000095AU100007015GA1025+019815999GA2075+042675999GD11991+0198159GD23991+0426759GF107991999999999999999999MA1102175101845MD1890219+9999MW1055REMMET11301/05/10 12:53:02 METAR KOAK 052053Z 28007KT 4SM HZ FEW065 BKN140 11/07 A3017 RMK AO2 SLP214 T01110072 58021 (LM)
0250724930232302010010521537+37755-122220FM-15+0027KOAK V0203005N00415042675MN0048285N5+01115+00785102115ADDAA101000095AU100007015GA1025+019815999GA2075+042675999GD11991+0198159GD23991+0426759GF107991999999999999999999MA1102135101815MW1055REMMET10701/05/10 13:53:02 METAR KOAK 052153Z 30008KT 3SM HZ FEW065 BKN140 11/08 A3016 RMK AO2 SLP211 T01110078 (LM)
0212724930232302010010522537+37755-122220FM-15+0027KOAK V0202805N00315054865MN0096565N5+01285+00835102095ADDAA101000095AU100007015GA1075+054865999GD13991+0548659GF107991999999999999999999MA1102105101775MW1055REMMET10001/05/10 14:53:02 METAR KOAK 052253Z 28006KT 6SM HZ BKN180 13/08 A3015 RMK AO2 SLP209 T01280083 (LM)
0308724930232302010010523537+37755-122220FM-15+0027KOAK V0203005N00265060965MN0080475N5+01175+00785102085ADDAA101000095AU100007015GA1025+045725999GA2075+060965999GD11991+0457259GD23991+0609659GF107991999999999999999999KA1999M+01281KA2999N+00941MA1102105101775MD1690069+9999MW1055REMMET12501/05/10 15:53:02 METAR KOAK 052353Z 30005KT 5SM HZ FEW150 BKN200 12/08 A3015 RMK AO2 SLP208 T01170078 10128 20094 56006 (KC)
0245724930232302010010600537+37755-122220FM-15+0027KOAK V0203005N00215060965MN0080475N5+01065+00785102105ADDAA101000095AU100007015GA1025+045725999GA2075+060965999GD11991+0457259GD23991+0609659GF107991999999999999999999MA1102105101775MW1055REMMET10201/05/10 16:53:02 METAR KOAK 060053Z 30004KT 5SM HZ FEW150 BKN200 11/08 A3015 RMK AO2 SLP210 T01060078
0187724930232302010010601537+37755-122220FM-15+0027KOAK V0202805N001552200059N0144845N5+01005+00785102125ADDAA101000095GA1045+060965999GD12991+0609659GF104991999999999999999999MA1102135101815REMMET09201/05/10 17:53:02 METAR KOAK 060153Z 28003KT 9SM SCT200 10/08 A3016 RMK AO2 SLP212 T01000078
0208724930232302010010602537+37755-122220FM-15+0027KOAK V0203105N002152200059N0144845N5+00945+00725102185ADDAA101000095GF100991999999999999999999MA1102205101875MD1390109+9999REMMET09501/05/10 18:53:02 METAR KOAK 060253Z 31004KT 9SM CLR 09/07 A3018 RMK AO2 SLP218 T00940072 53010EQDQ01    099SCCGD1P01    003SCCGA1
0188724930232302010010603537+37755-122220FM-15+0027KOAK V0209999C000052200059N0144845N5+00945+00725102195ADDAA101000095GF100991999999999999999999MA1102205101875REMMET08901/05/10 19:53:01 METAR KOAK 060353Z 00000KT 9SM CLR 09/07 A3018 RMK AO2 SLP219 T00940072EQDQ01    099SCCGD1P01    003SCCGA1
0188724930232302010010604537+37755-122220FM-15+0027KOAK V0200205N001552200059N0144845N5+00785+00565102215ADDAA101000095GF100991999999999999999999MA1102245101915REMMET08901/05/10 20:53:02 METAR KOAK 060453Z 02003KT 9SM CLR 08/06 A3019 RMK AO2 SLP221 T00780056EQDQ01    099SCCGD1P01    003SCCGA1
0246724930232302010010605537+37755-122220FM-15+0027KOAK V0200505N003152200059N0144845N5+00675+00445102205ADDAA101000095GF100991999999999999999999KA1999M+01171KA2999N+00671MA1102205101875MD1090029+9999REMMET10701/05/10 21:53:02 METAR KOAK 060553Z 05006KT 9SM CLR 07/04 A3018 RMK AO2 SLP220 T00670044 10117 20067 50002EQDQ01    099SCCGD1P01    003SCCGA1
0188724930232302010010606537+37755-122220FM-15+0027KOAK V0209999C000052200059N0144845N5+00835+00445102225ADDAA101000095GF100991999999999999999999MA1102245101915REMMET08901/05/10 22:53:02 METAR KOAK 060653Z 00000KT 9SM CLR 08/04 A3019 RMK AO2 SLP222 T00830044EQDQ01    099SCCGD1P01    003SCCGA1
0198724930232302010010607537+37755-122220FM-15+0027KOAK V0203605N002652200059N0144845N5+00835+00675102225ADDAA101000095GF100991999999999999999999MA1102245101915REMMET09901/05/10 23:53:02 METAR KOAK 060753Z 36005KT 9SM CLR 08/07 A3019 RMK AO2 SLP222 T00830067 401280044EQDQ01    099SCCGD1P01    003SCCGA1
0971724930232302010010607596+37755-122220SOD  +0027KOAK V020999999999999999999999999999+99999+99999999999ADDAA124000095AT1AU13BR  5AT2AU08HZ  5AX1015245AX2085245KA1240M+01285KA2240N+00445MG1101864102074OE11240067112002375OE22240058112002545OE33240023299999995REMSOD77324 HR PRECIPITATION (IN):0.00  WEATHER(CODE):1,8  24 HR MAX TEMP (F):55 24 HR MAX TEMP TIME (LST):1459 24 HR MIN TEMP (F):40 24 HR MIN TEMP TIME (LST):0122 AVERAGE STATION PRESSURE:30.080 MINIMUM SEA LEVEL PRESSURE:30.14 TIME OF OCCURRENCE:1553 PEAK WIND SPEED (MPH):15  PEAK WIND DIR (DEG):120 PEAK WIND TIME (LST):0237  FASTEST 2MIN SPEED (MPH):13 FASTEST 2MIN DIR (DEG):120 FASTEST 2MIN TIME (LST):0254 AVERAGE WIND SPEED (MPH):5.2  24 HR AVG TEMP (F):48 DEPART FROM NORMAL: -1  HEATING DEGREE DAYS:17  COOLING DEGREE DAYS:0   LATEST DAY MAX TEMP (0700-1900 LST):55  LATEST NIGHT MIN TEMP(1900-0800 LST):40 HOURLY INCREMENTAL PRECIPITATION VALUES (IN):.00 0.00 0.00 0.00 0.00 0.00 0.00 0.00 0.00 0.00 0.00 0.00 0.00 0.00 0.00 0.00 0.00 0.00 0.00 0.00 0.00 0.00 0.00 0.00EQDR01     N7GJS072R02     N7GKS075
0229724930232302010010608537+37755-122220FM-15+0027KOAK V0200205N002652200059N0112655N5+00785+00615102205ADDAA101000095GF100991999999999999999999MA1102205101875MD1890009+9999REMMET10001/06/10 00:53:02 METAR KOAK 060853Z 02005KT 7SM CLR 08/06 A3018 RMK AO2 SLP220 T00780061 58000 (DB)EQDQ01+000082APCTENQ02    099SCCGD1P01    003SCCGA1
0193724930232302010010609537+37755-122220FM-15+0027KOAK V0201305N002152200059N0128755N5+00725+00565102165ADDAA101000095GF100991999999999999999999MA1102175101845REMMET09401/06/10 01:53:02 METAR KOAK 060953Z 13004KT 8SM CLR 07/06 A3017 RMK AO2 SLP216 T00720056 (DB)EQDQ01    099SCCGD1P01    003SCCGA1
0193724930232302010010610537+37755-122220FM-15+0027KOAK V0209999C000052200059N0144845N5+00785+00565102195ADDAA101000095GF100991999999999999999999MA1102205101875REMMET09401/06/10 02:53:02 METAR KOAK 061053Z 00000KT 9SM CLR 08/06 A3018 RMK AO2 SLP219 T00780056 (DB)EQDQ01    099SCCGD1P01    003SCCGA1
0157724930232302010010611516+37755-122220FM-16+0027KOAK V0209999C000052200059N0112655N5+00705+00605999999ADDGA1025+002445999GD11991+0024459MA1102175101845REMMET09901/06/10 03:51:02 SPECI KOAK 061151Z 00000KT 7SM FEW008 07/06 A3017 RMK AO2 VIS LWR SW-NW FIBI (DB)
0264724930232302010010611537+37755-122220FM-15+0027KOAK V0209999C000052200059N0112655N5+00725+00615102175ADDAA101000095GA1025+002445999GD11991+0024459GF102991999999999999999999KA1999M+00891KA2999N+00611MA1102175101845MD1190019+9999REMMET12901/06/10 03:53:02 METAR KOAK 061153Z 00000KT 7SM FEW008 07/06 A3017 RMK AO2 SLP217 VIS LWR SW-NW T00720061 10089 20061 51001 (DB)
0232724930232302010010612537+37755-122220FM-15+0027KOAK V0200805N001552200059N0096565N5+00565+00445102175ADDAA101000095AU100001015AW1105GA1025+002445999GD11991+0024459GF102991999999999999999999MA1102175101845MW1101REMMET11401/06/10 04:53:02 METAR KOAK 061253Z 08003KT 6SM BR FEW008 06/04 A3017 RMK AO2 SLP217 VIS LWR SW-NW T00560044 (DB)
0192724930232302010010613537+37755-122220FM-15+0027KOAK V0209999C000052200059N0128755N5+00565+00335102235ADDAA101000095GA1025+002445999GD11991+0024459GF102991999999999999999999MA1102245101915REMMET09701/06/10 05:53:02 METAR KOAK 061353Z 00000KT 8SM FEW008 06/03 A3019 RMK AO2 SLP223 T00560033 (DB)
0250724930232302010010614537+37755-122220FM-15+0027KOAK V0209999C00005076205MN0128755N5+00565+00395102235ADDAA101000095GA1025+001835999GA2075+076205999GD11991+0018359GD23991+0762059GF107991999999999999999999MA1102245101915MD1390069+9999REMMET11001/06/10 06:53:02 METAR KOAK 061453Z 00000KT 8SM FEW006 BKN250 06/04 A3019 RMK AO2 SLP223 T00560039 53006 (DB)
0256724930232302010010615537+37755-122220FM-15+0027KOAK V0209999C00005076205MN0096565N5+00615+00395102275ADDAA101000095AU100001015AW1105GA1025+004885999GA2075+076205999GD11991+0048859GD23991+0762059GF107991999999999999999999MA1102275101945MW1101REMMET10701/06/10 07:53:02 METAR KOAK 061553Z 00000KT 6SM BR FEW016 BKN250 06/04 A3020 RMK AO2 SLP227 T00610039 (LM)
0250724930232302010010616537+37755-122220FM-15+0027KOAK V0209999C00005076205MN0096565N5+00835+00565102265ADDAA101000095AU100007015GA1025+004885999GA2075+076205999GD11991+0048859GD23991+0762059GF107991999999999999999999MA1102275101945MW1055REMMET10701/06/10 08:53:02 METAR KOAK 061653Z 00000KT 6SM HZ FEW016 BKN250 08/06 A3020 RMK AO2 SLP226 T00830056 (LM)
0288724930232302010010617537+37755-122220FM-15+0027KOAK V0201705N00215076205MN0112655N5+00895+00565102335ADDAA101000095GA1025+004885999GA2075+076205999GD11991+0048859GD23991+0762059GF107991999999999999999999KA1999M+00891KA2999N+00501MA1102345102015MD1390099+9999REMMET12201/06/10 09:53:02 METAR KOAK 061753Z 17004KT 7SM FEW016 BKN250 09/06 A3022 RMK AO2 SLP233 T00890056 10089 20050 53009 (LM)
0230724930232302010010618537+37755-122220FM-15+0027KOAK V0209999C000052200059N0112655N5+01005+00565102305ADDAA101000095GA1025+004885999GA2045+076205999GD11991+0048859GD22991+0762059GF104991999999999999999999MA1102305101985REMMET10401/06/10 10:53:02 METAR KOAK 061853Z 00000KT 7SM FEW016 SCT250 10/06 A3021 RMK AO2 SLP230 T01000056 (LM)
0250724930232302010010619537+37755-122220FM-15+0027KOAK V0202605N00215054865MN0080475N5+01005+00615102165ADDAA101000095AU100007015GA1025+004885999GA2075+054865999GD11991+0048859GD23991+0548659GF107991999999999999999999MA1102175101845MW1055REMMET10701/06/10 11:53:02 METAR KOAK 061953Z 26004KT 5SM HZ FEW016 BKN180 10/06 A3017 RMK AO2 SLP216 T01000061 (LM)
0270724930232302010010620537+37755-122220FM-15+0027KOAK V0202805N00365054865MN0064375N5+01115+00725102065ADDAA101000095AU100007015GA1025+004885999GA2075+054865999GD11991+0048859GD23991+0548659GF107991999999999999999999MA1102075101745MD1890259+9999MW1055REMMET11301/06/10 12:53:02 METAR KOAK 062053Z 28007KT 4SM HZ FEW016 BKN180 11/07 A3014 RMK AO2 SLP206 T01110072 58025 (LM)
0250724930232302010010621537+37755-122220FM-15+0027KOAK V0203105N00415054865MN0064375N5+01285+00785102005ADDAA101000095AU100007015GA1025+004885999GA2075+054865999GD11991+0048859GD23991+0548659GF107991999999999999999999MA1102005101675MW1055REMMET10701/06/10 13:53:02 METAR KOAK 062153Z 31008KT 4SM HZ FEW016 BKN180 13/08 A3012 RMK AO2 SLP200 T01280078 (LM)
0250724930232302010010622537+37755-122220FM-15+0027KOAK V0203205N00365054865MN0048285N5+01225+00785102005ADDAA101000095AU100007015GA1045+004885999GA2085+054865999GD12991+0048859GD24991+0548659GF108991999999999999999999MA1102005101675MW1055REMMET10701/06/10 14:53:02 METAR KOAK 062253Z 32007KT 3SM HZ SCT016 OVC180 12/08 A3012 RMK AO2 SLP200 T01220078 (LM)
0222724930232302010010623097+37755-122220FM-16+0027KOAK V0203005N00515054865MN0032195N5+01205+00805999999ADDAU100007015GA1025+042675999GA2075+054865999GD11991+0426759GD23991+0548659GF107991999999999999999999MA1102035101715MW1055REMMET09001/06/10 15:09:02 SPECI KOAK 062309Z 30010KT 2SM HZ FEW140 BKN180 12/08 A3013 RMK AO2 (KC)
0226724930232302010010623337+37755-122220FM-16+0027KOAK V0203105N00415054865MN0024145N5+01105+00805999999ADDAU100007015GA1025+042675999GA2085+054865999GD11991+0426759GD24991+0548659GF108991999999999999999999MA1102035101715MW1055REMMET09401/06/10 15:33:02 SPECI KOAK 062333Z 31008KT 1 1/2SM HZ FEW140 OVC180 11/08 A3013 RMK AO2 (KC)
0312724930232302010010623537+37755-122220FM-15+0027KOAK V0203005N00315045725MN0024145N5+01115+00785102015ADDAA101000095AU100007015GA1075+045725999GA2075+060965999GD13991+0457259GD23991+0609659GF107991999999999999999999KA1999M+01391KA2999N+00891MA1102035101715MD1590059+9999MW1055REMMET12901/06/10 15:53:02 METAR KOAK 062353Z 30006KT 1 1/2SM HZ BKN150 BKN200 11/08 A3013 RMK AO2 SLP201 T01110078 10139 20089 55005 (KC)
0217724930232302010010700267+37755-122220FM-16+0027KOAK V0203305N00315045725MN0032195N5+01105+00705999999ADDAU100007015GA1075+045725999GA2075+060965999GD13991+0457259GD23991+0609659GF107991999999999999999999MA1102005101675MW1055REMMET08501/06/10 16:26:02 SPECI KOAK 070026Z 33006KT 2SM HZ BKN150 BKN200 11/07 A3012 RMK AO2
0245724930232302010010700537+37755-122220FM-15+0027KOAK V0203105N00265060965MN0032195N5+01065+00725101955ADDAA101000095AU100007015GA1045+045725999GA2075+060965999GD12991+0457259GD23991+0609659GF107991999999999999999999MA1101965101645MW1055REMMET10201/06/10 16:53:02 METAR KOAK 070053Z 31005KT 2SM HZ SCT150 BKN200 11/07 A3011 RMK AO2 SLP195 T01060072
0217724930232302010010701067+37755-122220FM-16+0027KOAK V0203005N00465060965MN0080475N5+01005+00705999999ADDAU100007015GA1045+045725999GA2075+060965999GD12991+0457259GD23991+0609659GF107991999999999999999999MA1101965101645MW1055REMMET08501/06/10 17:06:02 SPECI KOAK 070106Z 30009KT 5SM HZ SCT150 BKN200 10/07 A3011 RMK AO2
0227724930232302010010701537+37755-122220FM-15+0027KOAK V0203205N00265060965MN0144845N5+01005+00675102005ADDAA101000095GA1025+045725999GA2075+060965999GD11991+0457259GD23991+0609659GF107991999999999999999999MA1102005101675REMMET10101/06/10 17:53:02 METAR KOAK 070153Z 32005KT 9SM FEW150 BKN200 10/07 A3012 RMK AO2 SLP200 T01000067 $
0207724930232302010010702537+37755-122220FM-15+0027KOAK V0203205N003152200059N0144845N5+00945+00675102045ADDAA101000095GA1025+060965999GD11991+0609659GF102991999999999999999999MA1102035101715MD1390019+9999REMMET09801/06/10 18:53:02 METAR KOAK 070253Z 32006KT 9SM FEW200 09/07 A3013 RMK AO2 SLP204 T00940067 53001
0187724930232302010010703537+37755-122220FM-15+0027KOAK V0209999C000052200059N0144845N5+00895+00615102085ADDAA101000095GA1025+060965999GD11991+0609659GF102991999999999999999999MA1102075101745REMMET09201/06/10 19:53:02 METAR KOAK 070353Z 00000KT 9SM FEW200 09/06 A3014 RMK AO2 SLP208 T00890061
0187724930232302010010704537+37755-122220FM-15+0027KOAK V0203105N001552200059N0144845N5+00835+00615102125ADDAA101000095GA1025+045725999GD11991+0457259GF102991999999999999999999MA1102135101815REMMET09201/06/10 20:53:01 METAR KOAK 070453Z 31003KT 9SM FEW150 08/06 A3016 RMK AO2 SLP212 T00830061
0246724930232302010010705537+37755-122220FM-15+0027KOAK V0200905N002152200059N0144845N5+00835+00615102085ADDAA101000095GF100991999999999999999999KA1999M+01171KA2999N+00781MA1102105101775MD1090059+9999REMMET10701/06/10 21:53:02 METAR KOAK 070553Z 09004KT 9SM CLR 08/06 A3015 RMK AO2 SLP208 T00830061 10117 20078 50005EQDQ01    099SCCGD1P01    003SCCGA1
0188724930232302010010706537+37755-122220FM-15+0027KOAK V0209999C000052200059N0144845N5+00785+00505102065ADDAA101000095GF100991999999999999999999MA1102075101745REMMET08901/06/10 22:53:01 METAR KOAK 070653Z 00000KT 9SM CLR 08/05 A3014 RMK AO2 SLP206 T00780050EQDQ01    099SCCGD1P01    003SCCGA1
0198724930232302010010707537+37755-122220FM-15+0027KOAK V0200505N002152200059N0144845N5+00675+00445102025ADDAA101000095GF100991999999999999999999MA1102035101715REMMET09901/06/10 23:53:01 METAR KOAK 070753Z 05004KT 9SM CLR 07/04 A3013 RMK AO2 SLP202 T00670044 401390050EQDQ01    099SCCGD1P01    003SCCGA1
0971724930232302010010707596+37755-122220SOD  +0027KOAK V020999999999999999999999999999+99999+99999999999ADDAA124000095AT1AU13BR  5AT2AU08HZ  5AX1015245AX2085245KA1240M+01395KA2240N+00505MG1101814101964OE11240071530015205OE22240062630015185OE33240016199999995REMSOD77324 HR PRECIPITATION (IN):0.00  WEATHER(CODE):1,8  24 HR MAX TEMP (F):57 24 HR MAX TEMP TIME (LST):1340 24 HR MIN TEMP (F):41 24 HR MIN TEMP TIME (LST):0712 AVERAGE STATION PRESSURE:30.065 MINIMUM SEA LEVEL PRESSURE:30.11 TIME OF OCCURRENCE:1746 PEAK WIND SPEED (MPH):16  PEAK WIND DIR (DEG):300 PEAK WIND TIME (LST):1520  FASTEST 2MIN SPEED (MPH):14 FASTEST 2MIN DIR (DEG):300 FASTEST 2MIN TIME (LST):1518 AVERAGE WIND SPEED (MPH):3.6  24 HR AVG TEMP (F):49 DEPART FROM NORMAL: 0   HEATING DEGREE DAYS:16  COOLING DEGREE DAYS:0   LATEST DAY MAX TEMP (0700-1900 LST):57  LATEST NIGHT MIN TEMP(1900-0800 LST):41 HOURLY INCREMENTAL PRECIPITATION VALUES (IN):.00 0.00 0.00 0.00 0.00 0.00 0.00 0.00 0.00 0.00 0.00 0.00 0.00 0.00 0.00 0.00 0.00 0.00 0.00 0.00 0.00 0.00 0.00 0.00EQDR01     N7GJS072R02     N7GKS075
0213724930232302010010708537+37755-122220FM-15+0027KOAK V0209999C000052200059N0128755N5+00615+00505101975ADDAA101000095GF100991999999999999999999MA1102005101675MD1890119+9999REMMET10001/07/10 00:53:02 METAR KOAK 070853Z 00000KT 8SM CLR 06/05 A3012 RMK AO2 SLP197 T00610050 58011 (DB)EQDQ01    099SCCGD1P01    003SCCGA1
0193724930232302010010709537+37755-122220FM-15+0027KOAK V0209999C000052200059N0112655N5+00565+00445102005ADDAA101000095GF100991999999999999999999MA1102005101675REMMET09401/07/10 01:53:02 METAR KOAK 070953Z 00000KT 7SM CLR 06/04 A3012 RMK AO2 SLP200 T00560044 (DB)EQDQ01    099SCCGD1P01    003SCCGA1
0193724930232302010010710537+37755-122220FM-15+0027KOAK V0209999C000052200059N0112655N5+00615+00565102015ADDAA101000095GF100991999999999999999999MA1102035101715REMMET09401/07/10 02:53:02 METAR KOAK 071053Z 00000KT 7SM CLR 06/06 A3013 RMK AO2 SLP201 T00610056 (DB)EQDQ01    099SCCGD1P01    003SCCGA1
0277724930232302010010711537+37755-122220FM-15+0027KOAK V0209999C000052200059N0096565N5+00615+00505101985ADDAA101000095AU100001015AW1105GF100991999999999999999999KA1999M+00831KA2999N+00561MA1102005101675MD1090019+9999MW1101REMMET11501/07/10 03:53:02 METAR KOAK 071153Z 00000KT 6SM BR CLR 06/05 A3012 RMK AO2 SLP198 T00610050 10083 20056 50001 (DB)EQDQ01    099SCCGD1P01    003SCCGA1
0219724930232302010010712537+37755-122220FM-15+0027KOAK V0209999C000052200059N0096565N5+00615+00505101965ADDAA101000095AU100001015AW1105GF100991999999999999999999MA1101965101645MW1101REMMET09701/07/10 04:53:02 METAR KOAK 071253Z 00000KT 6SM BR CLR 06/05 A3011 RMK AO2 SLP196 T00610050 (DB)EQDQ01    099SCCGD1P01    003SCCGA1
0219724930232302010010713537+37755-122220FM-15+0027KOAK V0209999C000052200059N0096565N5+00505+00395101975ADDAA101000095AU100001015AW1105GF100991999999999999999999MA1101965101645MW1101REMMET09701/07/10 05:53:02 METAR KOAK 071353Z 00000KT 6SM BR CLR 05/04 A3011 RMK AO2 SLP197 T00500039 (DB)EQDQ01    099SCCGD1P01    003SCCGA1
0238724930232302010010714537+37755-122220FM-15+0027KOAK V0203005N00265076205MN0096565N5+00565+00445102065ADDAA101000095AU100001015AW1105GA1075+076205999GD13991+0762059GF107991999999999999999999MA1102075101745MD1390079+9999MW1101REMMET10601/07/10 06:53:02 METAR KOAK 071453Z 30005KT 6SM BR BKN250 06/04 A3014 RMK AO2 SLP206 T00560044 53007 (DB)
0228724930232302010010715237+37755-122220FM-16+0027KOAK V0203605N00265076205MN0016095N5+00605+00505999999ADDAU100001015AW1105GA1045+001225999GA2075+076205999GD12991+0012259GD23991+0762059GF107991999999999999999999MA1102105101775MW1101REMMET09001/07/10 07:23:02 SPECI KOAK 071523Z 36005KT 1SM BR SCT004 BKN250 06/05 A3015 RMK AO2 (LM)
0205724930232302010010715516+37755-122220FM-16+0027KOAK V0203605N00265076205MN0040235N5+00705+00605999999ADDAU100001015AW1105GA1025+001225999GA2075+076205999GD11991+0012259GD23991+0762059MA1102105101775REMMET09901/07/10 07:51:02 SPECI KOAK 071551Z 36005KT 2 1/2SM BR FEW004 BKN250 07/06 A3015 RMK AO2 FIBI (LM)
0260724930232302010010715537+37755-122220FM-15+0027KOAK V0200105N003152200059N0040235N5+00725+00615102095ADDAA101000095AU100001015AW1105GA1025+001225999GA2045+076205999GD11991+0012259GD22991+0762059GF104991999999999999999999MA1102105101775MW1101REMMET11101/07/10 07:53:02 METAR KOAK 071553Z 01006KT 2 1/2SM BR FEW004 SCT250 07/06 A3015 RMK AO2 SLP209 T00720061 (LM)
0228724930232302010010716177+37755-122220FM-16+0027KOAK V0209999C000052200059N0048285N5+00705+00605999999ADDAU100001015AW1105GA1025+001225999GA2045+076205999GD11991+0012259GD22991+0762059GF104991999999999999999999MA1102105101775MW1101REMMET09001/07/10 08:17:02 SPECI KOAK 071617Z 00000KT 3SM BR FEW004 SCT250 07/06 A3015 RMK AO2 (LM)
0256724930232302010010716537+37755-122220FM-15+0027KOAK V0209999C00005076205MN0048285N5+00835+00615102105ADDAA101000095AU100001015AW1105GA1025+001225999GA2075+076205999GD11991+0012259GD23991+0762059GF107991999999999999999999MA1102105101775MW1101REMMET10701/07/10 08:53:02 METAR KOAK 071653Z 00000KT 3SM BR FEW004 BKN250 08/06 A3015 RMK AO2 SLP210 T00830061 (LM)
0314724930232302010010717537+37755-122220FM-15+0027KOAK V0209999C00005015245MN0048285N5+00895+00675102145ADDAA101000095AU100001015AW1105GA1025+001225999GA2075+015245999GD11991+0012259GD23991+0152459GF107991999999999999999999KA1999M+00891KA2999N+00441MA1102175101845MD1390099+9999MW1101REMMET12501/07/10 09:53:02 METAR KOAK 071753Z 00000KT 3SM BR FEW004 BKN050 09/07 A3017 RMK AO2 SLP214 T00890067 10089 20044 53009 (LM)
0212724930232302010010718537+37755-122220FM-15+0027KOAK V0202705N00155015245MN0064375N5+01005+00675102155ADDAA101000095AU100007015GA1075+015245999GD13991+0152459GF107991999999999999999999MA1102175101845MW1055REMMET10001/07/10 10:53:02 METAR KOAK 071853Z 27003KT 4SM HZ BKN050 10/07 A3017 RMK AO2 SLP215 T01000067 (LM)
0212724930232302010010719537+37755-122220FM-15+0027KOAK V0202705N00215015245MN0048285N5+01005+00725102045ADDAA101000095AU100007015GA1075+015245999GD13991+0152459GF107991999999999999999999MA1102075101745MW1055REMMET10001/07/10 11:53:02 METAR KOAK 071953Z 27004KT 3SM HZ BKN050 10/07 A3014 RMK AO2 SLP204 T01000072 (LM)
0270724930232302010010720537+37755-122220FM-15+0027KOAK V0202905N00315015245MN0048285N5+01065+00725101925ADDAA101000095AU100007015GA1075+015245999GA2085+048775999GD13991+0152459GD24991+0487759GF108991999999999999999999MA1101935101605MD1890229+9999MW1055REMMET11301/07/10 12:53:02 METAR KOAK 072053Z 29006KT 3SM HZ BKN050 OVC160 11/07 A3010 RMK AO2 SLP192 T01060072 58022 (LM)
0250724930232302010010721537+37755-122220FM-15+0027KOAK V0203005N00265048775MN0064375N5+01175+00785101865ADDAA101000095AU100007015GA1045+015245999GA2085+048775999GD12991+0152459GD24991+0487759GF108991999999999999999999MA1101865101545MW1055REMMET10701/07/10 13:53:02 METAR KOAK 072153Z 30005KT 4SM HZ SCT050 OVC160 12/08 A3008 RMK AO2 SLP186 T01170078 (LM)
0250724930232302010010722537+37755-122220FM-15+0027KOAK V0203205N00365048775MN0064375N5+01225+00785101875ADDAA101000095AU100007015GA1045+015245999GA2075+048775999GD12991+0152459GD23991+0487759GF107991999999999999999999MA1101865101545MW1055REMMET10701/07/10 14:53:02 METAR KOAK 072253Z 32007KT 4SM HZ SCT050 BKN160 12/08 A3008 RMK AO2 SLP187 T01220078 (LM)
0222724930232302010010723067+37755-122220FM-16+0027KOAK V0203205N00365060965MN0032195N5+01205+00805999999ADDAU100007015GA1045+045725999GA2075+060965999GD12991+0457259GD23991+0609659GF107991999999999999999999MA1101905101575MW1055REMMET09001/07/10 15:06:02 SPECI KOAK 072306Z 32007KT 2SM HZ SCT150 BKN200 12/08 A3009 RMK AO2 (KC)
0346724930232302010010723537+37755-122220FM-15+0027KOAK V0203105N00365045725MN0032195N5+01115+00785101915ADDAA101000095AU100007015GA1025+004575999GA2075+045725999GA3075+060965999GD11991+0045759GD23991+0457259GD33991+0609659GF107991999999999999999999KA1999M+01221KA2999N+00891MA1101935101605MD1590019+9999MW1055REMMET13201/07/10 15:53:02 METAR KOAK 072353Z 31007KT 2SM HZ FEW015 BKN150 BKN200 11/08 A3010 RMK AO2 SLP191 T01110078 10122 20089 55001 (KC)
0221724930232302010010800357+37755-122220FM-16+0027KOAK V0203505N00315045725MN0024145N5+01005+00705999999ADDAU100007015GA1075+045725999GA2075+060965999GD13991+0457259GD23991+0609659GF107991999999999999999999MA1101935101605MW1055REMMET08901/07/10 16:35:02 SPECI KOAK 080035Z 35006KT 1 1/2SM HZ BKN150 BKN200 10/07 A3010 RMK AO2
0249724930232302010010800537+37755-122220FM-15+0027KOAK V0203005N00415045725MN0024145N5+01005+00725101955ADDAA101000095AU100007015GA1075+045725999GA2075+060965999GD13991+0457259GD23991+0609659GF107991999999999999999999MA1101965101645MW1055REMMET10601/07/10 16:53:02 METAR KOAK 080053Z 30008KT 1 1/2SM HZ BKN150 BKN200 10/07 A3011 RMK AO2 SLP195 T01000072
0217724930232302010010801407+37755-122220FM-16+0027KOAK V0203205N00315045725MN0048285N5+01005+00705999999ADDAU100007015GA1075+045725999GA2075+060965999GD13991+0457259GD23991+0609659GF107991999999999999999999MA1102005101675MW1055REMMET08501/07/10 17:40:02 SPECI KOAK 080140Z 32006KT 3SM HZ BKN150 BKN200 10/07 A3012 RMK AO2
0251724930232302010010801537+37755-122220FM-15+0027KOAK V0203205N00315060965MN0048285N5+00945+00725102025ADDAA101000095AU100001015AW1105GA1045+045725999GA2075+060965999GD12991+0457259GD23991+0609659GF107991999999999999999999MA1102035101715MW1101REMMET10201/07/10 17:53:02 METAR KOAK 080153Z 32006KT 3SM BR SCT150 BKN200 09/07 A3013 RMK AO2 SLP202 T00940072
0233724930232302010010802537+37755-122220FM-15+0027KOAK V0200105N00315060965MN0048285N5+00945+00725102045ADDAA101000095AU100001015AW1105GA1085+060965999GD14991+0609659GF108991999999999999999999MA1102035101715MD1190139+9999MW1101REMMET10101/07/10 18:53:01 METAR KOAK 080253Z 01006KT 3SM BR OVC200 09/07 A3013 RMK AO2 SLP204 T00940072 51013
0213724930232302010010803537+37755-122220FM-15+0027KOAK V0209999C00005054865MN0080475N5+00945+00725102025ADDAA101000095AU100001015AW1105GA1085+054865999GD14991+0548659GF108991999999999999999999MA1102035101715MW1101REMMET09501/07/10 19:53:01 METAR KOAK 080353Z 00000KT 5SM BR OVC180 09/07 A3013 RMK AO2 SLP202 T00940072
0213724930232302010010804537+37755-122220FM-15+0027KOAK V0203105N00155045725MN0080475N5+00895+00725102035ADDAA101000095AU100001015AW1105GA1085+045725999GD14991+0457259GF108991999999999999999999MA1102035101715MW1101REMMET09501/07/10 20:53:02 METAR KOAK 080453Z 31003KT 5SM BR OVC150 09/07 A3013 RMK AO2 SLP203 T00890072
0271724930232302010010805537+37755-122220FM-15+0027KOAK V0209999C00005045725MN0080475N5+00895+00725102005ADDAA101000095AU100001015AW1105GA1085+045725999GD14991+0457259GF108991999999999999999999KA1999M+01111KA2999N+00891MA1102005101675MD1890049+9999MW1101REMMET11301/07/10 21:53:02 METAR KOAK 080553Z 00000KT 5SM BR OVC150 09/07 A3012 RMK AO2 SLP200 T00890072 10111 20089 58004
0251724930232302010010806537+37755-122220FM-15+0027KOAK V0209999C00005060965MN0080475N5+00835+00615101935ADDAA101000095AU100001015AW1105GA1045+045725999GA2075+060965999GD12991+0457259GD23991+0609659GF107991999999999999999999MA1101965101645MW1101REMMET10201/07/10 22:53:02 METAR KOAK 080653Z 00000KT 5SM BR SCT150 BKN200 08/06 A3011 RMK AO2 SLP193 T00830061
0223724930232302010010807537+37755-122220FM-15+0027KOAK V0200405N00215054865MN0096565N5+00785+00675101935ADDAA101000095AU100001015AW1105GA1075+054865999GD13991+0548659GF107991999999999999999999MA1101935101605MW1101REMMET10501/07/10 23:53:02 METAR KOAK 080753Z 04004KT 6SM BR BKN180 08/07 A3010 RMK AO2 SLP193 T00780067 401220044
0971724930232302010010807596+37755-122220SOD  +0027KOAK V020999999999999999999999999999+99999+99999999999ADDAA124000095AT1AU13BR  5AT2AU08HZ  5AX1015245AX2085245KA1240M+01225KA2240N+00445MG1101684101864OE11240071534018365OE22240058131018165OE33240015299999995REMSOD77324 HR PRECIPITATION (IN):0.00  WEATHER(CODE):1,8  24 HR MAX TEMP (F):54 24 HR MAX TEMP TIME (LST):1456 24 HR MIN TEMP (F):40 24 HR MIN TEMP TIME (LST):0643 AVERAGE STATION PRESSURE:30.025 MINIMUM SEA LEVEL PRESSURE:30.08 TIME OF OCCURRENCE:1502 PEAK WIND SPEED (MPH):16  PEAK WIND DIR (DEG):340 PEAK WIND TIME (LST):1836  FASTEST 2MIN SPEED (MPH):13 FASTEST 2MIN DIR (DEG):310 FASTEST 2MIN TIME (LST):1816 AVERAGE WIND SPEED (MPH):3.4  24 HR AVG TEMP (F):47 DEPART FROM NORMAL: -2  HEATING DEGREE DAYS:18  COOLING DEGREE DAYS:0   LATEST DAY MAX TEMP (0700-1900 LST):54  LATEST NIGHT MIN TEMP(1900-0800 LST):40 HOURLY INCREMENTAL PRECIPITATION VALUES (IN):.00 0.00 0.00 0.00 0.00 0.00 0.00 0.00 0.00 0.00 0.00 0.00 0.00 0.00 0.00 0.00 0.00 0.00 0.00 0.00 0.00 0.00 0.00 0.00EQDR01     N7GJS072R02     N7GKS075
0238724930232302010010808537+37755-122220FM-15+0027KOAK V0200205N001552200059N0096565N5+00835+00675101925ADDAA101000095AU100001015AW1105GA1045+054865999GD12991+0548659GF104991999999999999999999MA1101935101605MD1690089+9999MW1101REMMET10601/08/10 00:53:02 METAR KOAK 080853Z 02003KT 6SM BR SCT180 08/07 A3010 RMK AO2 SLP192 T00830067 56008 (DB)
0192724930232302010010809537+37755-122220FM-15+0027KOAK V0209999C000052200059N0128755N5+00835+00675101925ADDAA101000095GA1045+054865999GD12991+0548659GF104991999999999999999999MA1101935101605REMMET09701/08/10 01:53:02 METAR KOAK 080953Z 00000KT 8SM SCT180 08/07 A3010 RMK AO2 SLP192 T00830067 (DB)
0218724930232302010010810537+37755-122220FM-15+0027KOAK V0209999C00005036585MN0080475N5+00785+00675101975ADDAA101000095AU100001015AW1105GA1075+036585999GD13991+0365859GF107991999999999999999999MA1101965101645MW1101REMMET10001/08/10 02:53:02 METAR KOAK 081053Z 00000KT 5SM BR BKN120 08/07 A3011 RMK AO2 SLP197 T00780067 (DB)
0250724930232302010010811537+37755-122220FM-15+0027KOAK V0201105N00155033535MN0128755N5+00835+00615101965ADDAA101000095GA1075+033535999GD13991+0335359GF107991999999999999999999KA1999M+00941KA2999N+00721MA1101965101645MD1090049+9999REMMET11501/08/10 03:53:02 METAR KOAK 081153Z 11003KT 8SM BKN110 08/06 A3011 RMK AO2 SLP196 T00830061 10094 20072 50004 (DB)
0192724930232302010010812537+37755-122220FM-15+0027KOAK V0203605N00155036585MN0144845N5+00785+00615101985ADDAA101000095GA1075+036585999GD13991+0365859GF107991999999999999999999MA1102005101675REMMET09701/08/10 04:53:02 METAR KOAK 081253Z 36003KT 9SM BKN120 08/06 A3012 RMK AO2 SLP198 T00780061 (DB)
0230724930232302010010813537+37755-122220FM-15+0027KOAK V0209999C00005045725MN0128755N5+00725+00565101985ADDAA101000095GA1025+033535999GA2075+045725999GD11991+0335359GD23991+0457259GF107991999999999999999999MA1102005101675REMMET10401/08/10 05:53:02 METAR KOAK 081353Z 00000KT 8SM FEW110 BKN150 07/06 A3012 RMK AO2 SLP198 T00720056 (DB)
0250724930232302010010814537+37755-122220FM-15+0027KOAK V0209999C000052200059N0144845N5+00725+00565102045ADDAA101000095GA1025+045725999GA2045+076205999GD11991+0457259GD22991+0762059GF104991999999999999999999MA1102075101745MD1390089+9999REMMET11001/08/10 06:53:02 METAR KOAK 081453Z 00000KT 9SM FEW150 SCT250 07/06 A3014 RMK AO2 SLP204 T00720056 53008 (DB)
0237724930232302010010815537+37755-122220FM-15+0027KOAK V0209999C00005045725MN0128755N5+00785+00565102075ADDAA101000095GA1025+003055999GA2075+045725999GD11991+0030559GD23991+0457259GF107991999999999999999999MA1102105101775REMMET11101/08/10 07:53:02 METAR KOAK 081553Z 00000KT 8SM FEW010 BKN150 08/06 A3015 RMK AO2 PRESRR SLP207 T00780056 (LM)
0230724930232302010010816537+37755-122220FM-15+0027KOAK V0200805N00155045725MN0144845N5+00945+00675102145ADDAA101000095GA1025+003055999GA2075+045725999GD11991+0030559GD23991+0457259GF107991999999999999999999MA1102175101845REMMET10401/08/10 08:53:02 METAR KOAK 081653Z 08003KT 9SM FEW010 BKN150 09/07 A3017 RMK AO2 SLP214 T00940067 (LM)
0288724930232302010010817537+37755-122220FM-15+0027KOAK V0203205N00265045725MN0112655N5+00945+00675102235ADDAA101000095GA1025+003055999GA2075+045725999GD11991+0030559GD23991+0457259GF107991999999999999999999KA1999M+01061KA2999N+00721MA1102245101915MD1390199+9999REMMET12201/08/10 09:53:02 METAR KOAK 081753Z 32005KT 7SM FEW010 BKN150 09/07 A3019 RMK AO2 SLP223 T00940067 10106 20072 53019 (LM)
0245724930232302010010818537+37755-122220FM-15+0027KOAK V0203305N00155027435MN0112655N5+01005+00675102245ADDAA101000025GA1025+003055999GA2075+027435999GD11991+0030559GD23991+0274359GF107991999999999999999999MA1102275101945REMMET11901/08/10 10:53:02 METAR KOAK 081853Z 33003KT 7SM FEW010 BKN090 10/07 A3020 RMK AO2 RAB27E52 SLP224 P0000 T01000067 (LM)
0303724930232302010010819537+37755-122220FM-15+0027KOAK V0209999C00005027435MN0096565N5+01115+00725102215ADDAA101000025AU100007015GA1025+003055999GA2075+027435999GA3075+039625999GD11991+0030559GD23991+0274359GD33991+0396259GF107991999999999999999999MA1102205101875MW1055REMMET12901/08/10 11:53:02 METAR KOAK 081953Z 00000KT 6SM HZ FEW010 BKN090 BKN130 11/07 A3018 RMK AO2 RAB19E29 SLP221 P0000 T01110072 (LM)
0375724930232302010010820537+37755-122220FM-15+0027KOAK V0201105N00365027435MN0096565N5+01225+00785101975ADDAA101000025AA203000021AU100007015GA1025+003055999GA2075+027435999GA3075+033535999GD11991+0030559GD23991+0274359GD33991+0335359GF107991999999999999999999MA1101965101645MD1890269+9999MW1055REMMET14101/08/10 12:53:02 METAR KOAK 082053Z 11007KT 6SM HZ FEW010 BKN090 BKN110 12/08 A3011 RMK AO2 RAB21E31 SLP197 P0000 60000 T01220078 58026 (LM)EQDQ01  00002PRCP03Q02  00008PRCP03
0288724930232302010010821537+37755-122220FM-15+0027KOAK V0203205N00465027435MN0096565N5+01115+00785102055ADDAA101000095AU100007015GA1025+003055999GA2075+027435999GA3085+033535999GD11991+0030559GD23991+0274359GD34991+0335359GF108991999999999999999999MA1102075101745MW1055REMMET11401/08/10 13:53:02 METAR KOAK 082153Z 32009KT 6SM HZ FEW010 BKN090 OVC110 11/08 A3014 RMK AO2 SLP205 T01110078 (LM)
0266724930232302010010822537+37755-122220FM-15+0027KOAK V0200605N003152200079N0112655N5+01285+00785102075ADDAA101000095GA1027+003057999GA2045+027435999GD11991+0030579GD22991+0274379GF102991999999999999999999MA1102105101775REMMET10501/08/10 14:53:02 METAR KOAK 082253Z 06006KT 7SM FEW0109 SCT090 13/08 A3015 RMK AO2 SLP207 T01280078 (LM)EQDR01FEW0107SKY009R02FEW0107GAS009
0325724930232302010010823537+37755-122220FM-15+0027KOAK V0202805N002652200059N0080475N5+01175+00785102125ADDAA101000095AA206000021AU100007015GA1025+003055999GA2045+060965999GD11991+0030559GD22991+0609659GF104991999999999999999999KA1999M+01331KA2999N+00941MA1102135101815MD1190159+9999MW1055REMMET13101/08/10 15:53:02 METAR KOAK 082353Z 28005KT 5SM HZ FEW010 SCT200 12/08 A3016 RMK AO2 SLP212 60000 T01170078 10133 20094 51015 (KC)
0245724930232302010010900537+37755-122220FM-15+0027KOAK V0209999C000052200059N0080475N5+01005+00725102195ADDAA101000095AU100007015GA1025+003055999GA2045+060965999GD11991+0030559GD22991+0609659GF104991999999999999999999MA1102205101875MW1055REMMET10201/08/10 16:53:01 METAR KOAK 090053Z 00000KT 5SM HZ FEW010 SCT200 10/07 A3018 RMK AO2 SLP219 T01000072
0187724930232302010010901537+37755-122220FM-15+0027KOAK V0209999C000052200059N0144845N5+00895+00615102245ADDAA101000095GA1025+060965999GD11991+0609659GF102991999999999999999999MA1102275101945REMMET09201/08/10 17:53:01 METAR KOAK 090153Z 00000KT 9SM FEW200 09/06 A3020 RMK AO2 SLP224 T00890061
0207724930232302010010902537+37755-122220FM-15+0027KOAK V0209999C000052200059N0144845N5+00785+00565102295ADDAA101000095GA1025+060965999GD11991+0609659GF102991999999999999999999MA1102305101985MD1190179+9999REMMET09801/08/10 18:53:01 METAR KOAK 090253Z 00000KT 9SM FEW200 08/06 A3021 RMK AO2 SLP229 T00780056 51017
0187724930232302010010903537+37755-122220FM-15+0027KOAK V0209999C000052200059N0112655N5+00725+00565102305ADDAA101000095GA1045+045725999GD12991+0457259GF104991999999999999999999MA1102305101985REMMET09201/08/10 19:53:01 METAR KOAK 090353Z 00000KT 7SM SCT150 07/06 A3021 RMK AO2 SLP230 T00720056
0188724930232302010010904537+37755-122220FM-15+0027KOAK V0209999C000052200059N0144845N5+00675+00565102295ADDAA101000095GF100991999999999999999999MA1102305101985REMMET08901/08/10 20:53:02 METAR KOAK 090453Z 00000KT 9SM CLR 07/06 A3021 RMK AO2 SLP229 T00670056EQDQ01    099SCCGD1P01    003SCCGA1
0246724930232302010010905537+37755-122220FM-15+0027KOAK V0200705N001552200059N0144845N5+00565+00445102345ADDAA101000095GF100991999999999999999999KA1999M+01171KA2999N+00561MA1102345102015MD1390049+9999REMMET10701/08/10 21:53:02 METAR KOAK 090553Z 07003KT 9SM CLR 06/04 A3022 RMK AO2 SLP234 T00560044 10117 20056 53004EQDQ01    099SCCGD1P01    003SCCGA1
0187724930232302010010906537+37755-122220FM-15+0027KOAK V0209999C000052200059N0144845N5+00675+00565102375ADDAA101000095GA1045+060965999GD12991+0609659GF104991999999999999999999MA1102405102085REMMET09201/08/10 22:53:02 METAR KOAK 090653Z 00000KT 9SM SCT200 07/06 A3024 RMK AO2 SLP237 T00670056
0235724930232302010010907537+37755-122220FM-15+0027KOAK V0201005N004152200059N0144845N5+00785+00615102245ADDAA101000095GA1025+003355999GA2045+060965999GD11991+0033559GD22991+0609659GF104991999999999999999999MA1102275101945REMMET10901/08/10 23:53:01 METAR KOAK 090753Z 10008KT 9SM FEW011 SCT200 08/06 A3020 RMK AO2 SLP224 T00780061 401330056
0971724930232302010010907596+37755-122220SOD  +0027KOAK V020999999999999999999999999999+99999+99999999999ADDAA124000025AT1AU13BR  5AT2AU08HZ  5AX1015245AX2085245KA1240M+01335KA2240N+00565MG1101834101904OE11240080511012205OE22240062611012205OE33240012599999995REMSOD77324 HR PRECIPITATION (IN):T     WEATHER(CODE):1,8  24 HR MAX TEMP (F):56 24 HR MAX TEMP TIME (LST):1523 24 HR MIN TEMP (F):42 24 HR MIN TEMP TIME (LST):2206 AVERAGE STATION PRESSURE:30.070 MINIMUM SEA LEVEL PRESSURE:30.09 TIME OF OCCURRENCE:0209 PEAK WIND SPEED (MPH):18  PEAK WIND DIR (DEG):110 PEAK WIND TIME (LST):1220  FASTEST 2MIN SPEED (MPH):14 FASTEST 2MIN DIR (DEG):110 FASTEST 2MIN TIME (LST):1220 AVERAGE WIND SPEED (MPH):2.8  24 HR AVG TEMP (F):49 DEPART FROM NORMAL: 0   HEATING DEGREE DAYS:16  COOLING DEGREE DAYS:0   LATEST DAY MAX TEMP (0700-1900 LST):56  LATEST NIGHT MIN TEMP(1900-0800 LST):45 HOURLY INCREMENTAL PRECIPITATION VALUES (IN):.00 0.00 0.00 0.00 0.00 0.00 0.00 0.00 0.00 0.00 T    T    T    0.00 0.00 0.00 0.00 0.00 0.00 0.00 0.00 0.00 0.00 0.00EQDR01     N7GJS072R02     N7GKS075
0251724930232302010010908537+37755-122220FM-15+0027KOAK V0200905N002652200059N0144845N5+00725+00565102275ADDAA101000095GA1025+003355999GA2045+060965999GD11991+0033559GD22991+0609659GF104991999999999999999999MA1102275101945MD1890069+9999REMMET11101/09/10 00:53:02 METAR KOAK 090853Z 09005KT 9SM FEW011 SCT200 07/06 A3020 RMK AO2 SLP227 T00720056 58006 (MRP)
0231724930232302010010909537+37755-122220FM-15+0027KOAK V0209999C000052200059N0144845N5+00675+00565102285ADDAA101000095GA1025+003355999GA2045+060965999GD11991+0033559GD22991+0609659GF104991999999999999999999MA1102305101985REMMET10501/09/10 01:53:02 METAR KOAK 090953Z 00000KT 9SM FEW011 SCT200 07/06 A3021 RMK AO2 SLP228 T00670056 (MRP)
0193724930232302010010910537+37755-122220FM-15+0027KOAK V0201105N001552200059N0144845N5+00615+00505102255ADDAA101000095GA1025+003355999GD11991+0033559GF102991999999999999999999MA1102275101945REMMET09801/09/10 02:53:02 METAR KOAK 091053Z 11003KT 9SM FEW011 06/05 A3020 RMK AO2 SLP225 T00610050 (MRP)
0251724930232302010010911537+37755-122220FM-15+0027KOAK V0201205N004152200059N0144845N5+00675+00505102225ADDAA101000095GA1025+003355999GD11991+0033559GF102991999999999999999999KA1999M+00781KA2999N+00561MA1102245101915MD1890059+9999REMMET11601/09/10 03:53:02 METAR KOAK 091153Z 12008KT 9SM FEW011 07/05 A3019 RMK AO2 SLP222 T00670050 10078 20056 58005 (MRP)
0194724930232302010010912537+37755-122220FM-15+0027KOAK V0201105N004152200059N0160935N5+00675+00505102235ADDAA101000095GA1025+003055999GD11991+0030559GF102991999999999999999999MA1102245101915REMMET09901/09/10 04:53:02 METAR KOAK 091253Z 11008KT 10SM FEW010 07/05 A3019 RMK AO2 SLP223 T00670050 (MRP)
0194724930232302010010913537+37755-122220FM-15+0027KOAK V0201105N002152200059N0160935N5+00725+00565102285ADDAA101000095GA1025+060965999GD11991+0609659GF102991999999999999999999MA1102305101985REMMET09901/09/10 05:53:02 METAR KOAK 091353Z 11004KT 10SM FEW200 07/06 A3021 RMK AO2 SLP228 T00720056 (MRP)
0252724930232302010010914537+37755-122220FM-15+0027KOAK V0201105N00215030485MN0160935N5+00675+00505102305ADDAA101000095GA1045+003965999GA2075+030485999GD12991+0039659GD23991+0304859GF107991999999999999999999MA1102305101985MD1290089+9999REMMET11201/09/10 06:53:02 METAR KOAK 091453Z 11004KT 10SM SCT013 BKN100 07/05 A3021 RMK AO2 SLP230 T00670050 52008 (MRP)
0230724930232302010010915537+37755-122220FM-15+0027KOAK V0201105N00265060965MN0112655N5+00725+00565102325ADDAA101000095GA1045+004575999GA2075+060965999GD12991+0045759GD23991+0609659GF107991999999999999999999MA1102345102015REMMET10401/09/10 07:53:02 METAR KOAK 091553Z 11005KT 7SM SCT015 BKN200 07/06 A3022 RMK AO2 SLP232 T00720056 (WS)
0230724930232302010010916537+37755-122220FM-15+0027KOAK V0201705N00315060965MN0112655N5+00835+00675102395ADDAA101000095GA1045+004575999GA2075+060965999GD12991+0045759GD23991+0609659GF107991999999999999999999MA1102405102085REMMET10401/09/10 08:53:02 METAR KOAK 091653Z 17006KT 7SM SCT015 BKN200 08/07 A3024 RMK AO2 SLP239 T00830067 (WS)
0201724930232302010010917516+37755-122220FM-16+0027KOAK V0201705N00215006105MN0080475N5+00905+00705999999ADDAU100001015AW1105GA1045+004575999GA2085+006105999GD12991+0045759GD24991+0061059MA1102405102085REMMET09501/09/10 09:51:02 SPECI KOAK 091751Z 17004KT 5SM BR SCT015 OVC020 09/07 A3024 RMK AO2 FIBI (WS)
0314724930232302010010917537+37755-122220FM-15+0027KOAK V0201705N00215060965MN0080475N5+00895+00725102425ADDAA101000095AU100001015AW1105GA1045+004575999GA2085+060965999GD12991+0045759GD24991+0609659GF108991999999999999999999KA1999M+00891KA2999N+00611MA1102405102085MD1390119+9999MW1101REMMET12501/09/10 09:53:02 METAR KOAK 091753Z 17004KT 5SM BR SCT015 OVC200 09/07 A3024 RMK AO2 SLP242 T00890072 10089 20061 53011 (WS)
0288724930232302010010918537+37755-122220FM-15+0027KOAK V0201205N00265060965MN0096565N5+00945+00675102375ADDAA101000095AU100007015GA1025+006105999GA2045+030485999GA3085+060965999GD11991+0061059GD22991+0304859GD34991+0609659GF108991999999999999999999MA1102375102045MW1055REMMET11401/09/10 10:53:02 METAR KOAK 091853Z 12005KT 6SM HZ FEW020 SCT100 OVC200 09/07 A3023 RMK AO2 SLP237 T00940067 (WS)
0256724930232302010010919537+37755-122220FM-15+0027KOAK V0209999C00005060965MN0080475N5+00945+00725102305ADDAA101000095AU100001015AW1105GA1025+036585999GA2085+060965999GD11991+0365859GD24991+0609659GF108991999999999999999999MA1102305101985MW1101REMMET10701/09/10 11:53:02 METAR KOAK 091953Z 00000KT 5SM BR FEW120 OVC200 09/07 A3021 RMK AO2 SLP230 T00940072 (WS)
0270724930232302010010920537+37755-122220FM-15+0027KOAK V0202605N00265060965MN0080475N5+01005+00725102275ADDAA101000095AU100007015GA1025+036585999GA2085+060965999GD11991+0365859GD24991+0609659GF108991999999999999999999MA1102275101945MD1690149+9999MW1055REMMET11301/09/10 12:53:02 METAR KOAK 092053Z 26005KT 5SM HZ FEW120 OVC200 10/07 A3020 RMK AO2 SLP227 T01000072 56014 (WS)
0268724930232302010010921537+37755-122220FM-15+0027KOAK V0200305N00315060965MN0112655N5+01065+00725102145ADDAA101000095GA1025+015245999GA2045+036585999GA3085+060965999GD11991+0152459GD22991+0365859GD34991+0609659GF108991999999999999999999MA1102175101845REMMET11101/09/10 13:53:02 METAR KOAK 092153Z 03006KT 7SM FEW050 SCT120 OVC200 11/07 A3017 RMK AO2 SLP214 T01060072 (WS)
0250724930232302010010922537+37755-122220FM-15+0027KOAK V0202705N00155033535MN0096565N5+01065+00785102195ADDAA101000095AU100007015GA1075+033535999GA2075+060965999GD13991+0335359GD23991+0609659GF107991999999999999999999MA1102205101875MW1055REMMET10701/09/10 14:53:02 METAR KOAK 092253Z 27003KT 6SM HZ BKN110 BKN200 11/08 A3018 RMK AO2 SLP219 T01060078 (WS)
0308724930232302010010923537+37755-122220FM-15+0027KOAK V0202905N00215045725MN0080475N5+01115+00835102185ADDAA101000095AU100007015GA1075+045725999GA2075+060965999GD13991+0457259GD23991+0609659GF107991999999999999999999KA1999M+01111KA2999N+00891MA1102205101875MD1690099+9999MW1055REMMET12501/09/10 15:53:02 METAR KOAK 092353Z 29004KT 5SM HZ BKN150 BKN200 11/08 A3018 RMK AO2 SLP218 T01110083 10111 20089 56009 (KC)
0251724930232302010011000537+37755-122220FM-15+0027KOAK V0202905N001552200059N0080475N5+01065+00835102205ADDAA101000095AU100001015AW1105GA1025+045725999GA2045+060965999GD11991+0457259GD22991+0609659GF104991999999999999999999MA1102205101875MW1101REMMET10201/09/10 16:53:01 METAR KOAK 100053Z 29003KT 5SM BR FEW150 SCT200 11/08 A3018 RMK AO2 SLP220 T01060083
0225724930232302010011001537+37755-122220FM-15+0027KOAK V0203205N001552200059N0144845N5+00945+00785102245ADDAA101000095GA1025+045725999GA2045+060965999GD11991+0457259GD22991+0609659GF104991999999999999999999MA1102245101915REMMET09901/09/10 17:53:01 METAR KOAK 100153Z 32003KT 9SM FEW150 SCT200 09/08 A3019 RMK AO2 SLP224 T00940078
0207724930232302010011002537+37755-122220FM-15+0027KOAK V0209999C000052200059N0144845N5+00895+00725102285ADDAA101000095GA1025+054865999GD11991+0548659GF102991999999999999999999MA1102275101945MD1390099+9999REMMET09801/09/10 18:53:01 METAR KOAK 100253Z 00000KT 9SM FEW180 09/07 A3020 RMK AO2 SLP228 T00890072 53009
0188724930232302010011003537+37755-122220FM-15+0027KOAK V0209999C000052200059N0144845N5+00675+00615102305ADDAA101000095GF100991999999999999999999MA1102305101985REMMET08901/09/10 19:53:02 METAR KOAK 100353Z 00000KT 9SM CLR 07/06 A3021 RMK AO2 SLP230 T00670061EQDQ01    099SCCGD1P01    003SCCGA1
0188724930232302010011004537+37755-122220FM-15+0027KOAK V0209999C000052200059N0144845N5+00615+00565102305ADDAA101000095GF100991999999999999999999MA1102305101985REMMET08901/09/10 20:53:02 METAR KOAK 100453Z 00000KT 9SM CLR 06/06 A3021 RMK AO2 SLP230 T00610056EQDQ01    099SCCGD1P01    003SCCGA1
0159724930232302010011005177+37755-122220FM-16+0027KOAK V0209999C000052200059N0144845N5+00605+00505999999ADDGA1025+002745999GD11991+0027459GF102991999999999999999999MA1102345102015REMMET07501/09/10 21:17:02 SPECI KOAK 100517Z 00000KT 9SM FEW009 06/05 A3022 RMK AO2
0245724930232302010011005537+37755-122220FM-15+0027KOAK V0209999C000052200059N0144845N5+00565+00505102335ADDAA101000095GA1025+001525999GD11991+0015259GF102991999999999999999999KA1999M+01171KA2999N+00501MA1102345102015MD1390059+9999REMMET11001/09/10 21:53:02 METAR KOAK 100553Z 00000KT 9SM FEW005 06/05 A3022 RMK AO2 SLP233 T00560050 10117 20050 53005
0188724930232302010011006537+37755-122220FM-15+0027KOAK V0209999C000052200059N0144845N5+00505+00445102345ADDAA101000095GF100991999999999999999999MA1102345102015REMMET08901/09/10 22:53:02 METAR KOAK 100653Z 00000KT 9SM CLR 05/04 A3022 RMK AO2 SLP234 T00500044EQDQ01    099SCCGD1P01    003SCCGA1
0198724930232302010011007537+37755-122220FM-15+0027KOAK V0209999C000052200059N0144845N5+00505+00395102345ADDAA101000095GF100991999999999999999999MA1102345102015REMMET09901/09/10 23:53:01 METAR KOAK 100753Z 00000KT 9SM CLR 05/04 A3022 RMK AO2 SLP234 T00500039 401170050EQDQ01    099SCCGD1P01    003SCCGA1
0971724930232302010011007596+37755-122220SOD  +0027KOAK V020999999999999999999999999999+99999+99999999999ADDAA124000095AT1AU13BR  5AT2AU08HZ  5AX1015245AX2085245KA1240M+01175KA2240N+00505MG1101954102134OE11240062611005005OE22240053610005085OE33240016199999995REMSOD77324 HR PRECIPITATION (IN):0.00  WEATHER(CODE):1,8  24 HR MAX TEMP (F):53 24 HR MAX TEMP TIME (LST):1621 24 HR MIN TEMP (F):41 24 HR MIN TEMP TIME (LST):2359 AVERAGE STATION PRESSURE:30.105 MINIMUM SEA LEVEL PRESSURE:30.16 TIME OF OCCURRENCE:1421 PEAK WIND SPEED (MPH):14  PEAK WIND DIR (DEG):110 PEAK WIND TIME (LST):0500  FASTEST 2MIN SPEED (MPH):12 FASTEST 2MIN DIR (DEG):100 FASTEST 2MIN TIME (LST):0508 AVERAGE WIND SPEED (MPH):3.6  24 HR AVG TEMP (F):47 DEPART FROM NORMAL: -2  HEATING DEGREE DAYS:18  COOLING DEGREE DAYS:0   LATEST DAY MAX TEMP (0700-1900 LST):53  LATEST NIGHT MIN TEMP(1900-0800 LST):42 HOURLY INCREMENTAL PRECIPITATION VALUES (IN):.00 0.00 0.00 0.00 0.00 0.00 0.00 0.00 0.00 0.00 0.00 0.00 0.00 0.00 0.00 0.00 0.00 0.00 0.00 0.00 0.00 0.00 0.00 0.00EQDR01     N7GJS072R02     N7GKS075
